:020000040800F2
:10000000101000201D0A0008090B00080B0B000847
:100010000D0B00080F0B0008110B0008310B000836
:10002000000000000000000000000000130B0008AA
:10003000150B000800000000170B0008190B000842
:10004000350B0008390B00083D0B0008410B000878
:10005000450B0008490B00084D0B0008510B000828
:10006000550B00081D0B0008590B00085D0B00081C
:10007000610B0008650B0008690B00086D0B000898
:10008000710B0008750B0008790B00087D0B000848
:10009000810B0008850B0008890B00088D0B0008F8
:1000A000910B0008950B0008990B00089D0B0008A8
:1000B000A10B0008A50B0008A90B0008AD0B000858
:1000C000B10B0008B50B0008B90B0008BD0B000808
:1000D000C10B0008C50B0008C90B0008CD0B0008B8
:1000E000D10B0008D50B0008D90B0008DD0B000868
:1000F000E10B0008E50B0008E90B0008ED0B000818
:10010000F10B0008F50B0008F90B0008FD0B0008C7
:10011000010C0008050C0008090C00080D0C000873
:10012000110C0008150C0008190C00081D0C000823
:10013000210C0008250C0008290C00082D0C0008D3
:10014000310C0008350C0008390C00083D0C000883
:10015000410C0008450C0008490C00084D0C000833
:100160002DE9F84300F0A4F9C04C20684FF0005589
:1001700040F004002060216801F004010091009823
:1001800000F09EF800F0E2F8206EC10003D4206E6B
:10019000810140F1858028784FF6FF74B44F002824
:1001A00064D1032000F0DFF800285FD038886E7833
:1001B000A0421DBF00288102490B80218E4201D23E
:1001C000032E09DAA04214BF0028402603D0C60837
:1001D000B61F7608F61C6E70F0B200F0C4F8002866
:1001E0005BD036060320F60A00F0EBF806F1006655
:1001F00006F5B0700068DFF87C829F4D00094FEA79
:10020000001928E0286942F2FA0140F040402861D4
:10021000296000F094F932464146012000F062F96D
:100220000028F8D100F09BF9D8E90023D6E90001B5
:100230008B4208BF8242E5D108F10800D0E90023D3
:1002400006F1080EDEE900018B4208BF8242D9D1D7
:1002500008F110081036C145D4D2032000F083F80D
:10026000D8B13888A04218BF00280CE0287818B907
:10027000032000F078F8E0B12878012810D1388800
:10028000A04218BF002804D0C008801F4008C01C2E
:1002900000E04020C0B200F094F800F087F80EE0D3
:1002A000032000F060F820B10020287000F07EF8F4
:1002B00005E001210320FF2229706870AA70FEE783
:1002C00080B56E480268012161F303020260016893
:1002D00001F00F010129FAD16948016821F4803148
:1002E00001606848026842F4807202600168490552
:1002F000FCD50269102161F314420261C1698908C9
:100300008900C161C16911F00C0FFBD1016AC908F4
:10031000C90001625C490A6822F010020A60016AA1
:1003200021F070010162026A042161F30A22026273
:10033000416A21F070014162544800F08BF90E20AF
:1003400000F08EF908B172B6FEE701BD81B05048E9
:10035000016841F001010160006800F001000090B7
:10036000009801B070474B4A02EB403203281168F5
:100370001CBFC01E01EB40313D4800884FF6FF73A3
:10038000984201D0020001D1434A02E0434A02EB05
:100390008022B1F1006F28BF8A4203D30868404928
:1003A000884201D0002070470120704780B5314855
:1003B0003C490860026882F308884068804730BF83
:1003C00001BD38B584B02A4A11884FF6FF739942AF
:1003D00014BF00293D2403D08C02640BA41F6408C1
:1003E00005466419641E994214BF00293D2103D0BB
:1003F0008902490B891F4908032810DA00204FF0B1
:1004000000510870BFF34F8F27490A68274802F44C
:10041000E06202430A60BFF34F8F00BFFDE7481957
:10042000401E84423CBF611B491C0224019403917D
:100430001088984218BF00280FBF7F208002400B11
:10044000401E054002950C48016942F2FA0241F053
:1004500040410161026000F072F8694601A800F0B5
:1004600049F900F07CF805B030BD0000940C02465C
:10047000A007F90B00600008202002400020024085
:100480000C080246000C0246000E02460024F4004E
:100490008C0C024660010008FCFF0F08FCFFFF0700
:1004A000298A449408ED00E00CED00E00400FA0510
:1004B00080B50B48016841F480710160032000F0B1
:1004C00077F900F0FFF9042000F0C4F90E2000F0E5
:1004D000C7F808B1012002BD00F068FA002002BD93
:1004E00000200240F8B50446424D28780E461746D3
:1004F000012801D10220F2BD01202870002169608D
:1005000000F01AF8010014D124F000400128AC607A
:100510003946304602D100F053F801E000F057F8B8
:1005200000F00AF834490A6824F0004422EA04047E
:100530000C6000212970F2BD4FF47A701AE0304946
:100540000A6A0020002A00D4704710B52D4A0A60BC
:100550002D4C0C60096A002948BF012010BD2649B6
:100560000A68012042F000420A600968002948BF79
:100570000020704770B5054600F024FA2E181F4C75
:10058000206810F4403F08D015F1010FF8D000F0BA
:1005900019FAB042F4D3032070BD206842F2FA0188
:1005A000084006D013494A6802434A60206001208F
:1005B00070BD2068C10744BF01202060002070BDCD
:1005C00010B50D4A136800F021F8042207E010B5B9
:1005D000094A136843F4804300F018F8202251F8C8
:1005E000044B521E40F8044BF9D183F3108810BD20
:1005F000000000002010002028200240202002409F
:100600000820024023016745AB89EFCD43F0010389
:100610001360EFF3108372B6704730B501688468D9
:100620004218416802EB5103C90703D54C4401E06D
:10063000491C08D19A4218BF12F9011B01D10C3094
:1006400030BD12F8015B002904F8015BF0D4491EAB
:10065000F7D5EFE701490860704700001C10002043
:10066000F8B504461F4D2878002100282ED01E4AD8
:1006700012681E4B1E68770702D54FF47A710DE0A1
:100680001B4B1B6813F4400306D0B3F5800F08D052
:10069000B3F5000F0ED015E04FF4FA51B1FBF0F0B6
:1006A0000EE04FF47A72B2FBF0F24FF4FA43B3FB70
:1006B000F2F107E04FF47A71B1FBF0F04FF4004231
:1006C000B2FBF0F1084600F0B2F808B10120F2BD2B
:1006D000002221464FF0FF3000F077F8AC60002098
:1006E000F2BD00BF101000201C10002010E000E040
:1006F000E00C02462DE9F0410446DFF8A8603078AE
:100700008846012808BF022038D00120307000211F
:10071000716000F035F801002ED12168DFF8887093
:10072000B160226822F00042042A08D1386840F4FF
:10073000803040F00400386000F022F814E04FF000
:10074000FF31C8F80010656800E06D1C6168A268A0
:1007500051188D4208D2284600F016F800F010F823
:100760000100F2D0C8F800503968226822F0004237
:1007700042F47E729143396000213170BDE8F0810E
:100780004FF47A70FFF7F6BE074A136807490B402B
:1007900043EAC00343F4803343F00203136070471D
:1007A00000000000201000202820024005FCFEFF71
:1007B0003A4B19684FF6FF020002114000F4E06066
:1007C0000843374908431860704770B5334B1C68BD
:1007D000C4F302230124C3F10705052D2EBF0F2505
:1007E00004FA05F56D1E1E1D072E34BF0023DB1E07
:1007F0002940994004FA03F35B1E1A401143090192
:10080000020002D42748815470BD274B02F00F022A
:100810001A4402F8041C70BD010007D4012200F044
:100820001F018A40214B400943F820207047401E99
:10083000B0F1807F07D21E49486000228A600B68B1
:1008400043F003030B60B0F1807F8041C043C00FD1
:10085000704700001749164A04281ED8DFE800F048
:100860000811141D0300106840F004001060704768
:10087000136823F004031360086820F44000086044
:1008800070471368012001E01368022023F004037D
:1008900013600A6860F397520A6070470CED00E03D
:1008A0000000FA0500E400E018ED00E000E100E0DF
:1008B00010E000E0E00C02463548016841F47001A8
:1008C0000160704730B53349CB693348334A03F090
:1008D0000C03082B02D00C2B07D04BE010460A6803
:1008E000120D02F00102D04044E08B6A4C6BC3F35E
:1008F00002256D1C00EE105AC4F30805C4F306640B
:10090000641C6D1C01EE104A00EE905ADC0607D5FF
:100910008C6BC4F3CC0401EE904AFBEEE91A01E0C3
:10092000DFED1A1A03F00303022B02D0032B03D0CE
:100930000AE002EE100A09E00868000D00F001006C
:10094000C24002EE102A01E09FED102AB8EE422AC2
:10095000B8EE400AF8EE600A82EE000A70EEA10AD4
:1009600020EE200AF8EE410A80EE200ABCEEC00A12
:1009700010EE100A0A4A1060096A00BF09A301F0CC
:100980000701595CC840106030BD00000000000045
:1009900088ED00E0000C02460024F4000048E80165
:1009A0001C100020000000000102030480B500229A
:1009B00001210920FFF709FF0920BDE80240FFF7E8
:1009C0002BBF000001484068704700BF1010002096
:1009D00081B00F48016841F004010160026802F033
:1009E0000402009200990B490A6842F080020A60F2
:1009F000094A136843F480431360896B490704D59F
:100A0000006E10B972B6012000E0002001B07047FE
:100A1000940C02460008024600200240DFF818D07D
:100A2000FFF7D6FF01283FF4C1AC0448D0F800D04E
:100A300003488047034800472000002000000008CA
:100A4000B9080008ED0A000810B5074979441831C3
:100A5000064C7C44163404E00A68081D114488479B
:100A60000146A142F8D110BD2C0000003800000062
:100A70004EF68851CEF20001086840F4700008601C
:100A8000BFF34F8FBFF36F8F4FF00170E1EE100A8D
:100A90007047000087FBFFFFB80100001A0000004C
:100AA0001010002000F00DF8002801D0FFF7CCFF57
:100AB000AFF300800020AFF30080FFF751FB00F0A0
:100AC00002F80120704700F001B8000007463846E0
:100AD00000F002F8FBE7000080B5AFF30080024AA7
:100AE00011001820ABBEFBE72600020005480146B6
:100AF00003B4684680F30988AFF30080FFF7B8FFBE
:100B0000FFF7D0FFA5EDF5FEFEE7FEE7FEE7FEE707
:100B1000FEE770477047704700F002B8704700006A
:100B200002494A68087882184A607047101000200D
:100B3000FFF7FEBFFFF7FEBFFFF7FEBFFFF7FEBFE9
:100B4000FFF7FEBFFFF7FEBFFFF7FEBFFFF7FEBFD9
:100B5000FFF7FEBFFFF7FEBFFFF7FEBFFFF7FEBFC9
:100B6000FFF7FEBFFFF7FEBFFFF7FEBFFFF7FEBFB9
:100B7000FFF7FEBFFFF7FEBFFFF7FEBFFFF7FEBFA9
:100B8000FFF7FEBFFFF7FEBFFFF7FEBFFFF7FEBF99
:100B9000FFF7FEBFFFF7FEBFFFF7FEBFFFF7FEBF89
:100BA000FFF7FEBFFFF7FEBFFFF7FEBFFFF7FEBF79
:100BB000FFF7FEBFFFF7FEBFFFF7FEBFFFF7FEBF69
:100BC000FFF7FEBFFFF7FEBFFFF7FEBFFFF7FEBF59
:100BD000FFF7FEBFFFF7FEBFFFF7FEBFFFF7FEBF49
:100BE000FFF7FEBFFFF7FEBFFFF7FEBFFFF7FEBF39
:100BF000FFF7FEBFFFF7FEBFFFF7FEBFFFF7FEBF29
:100C0000FFF7FEBFFFF7FEBFFFF7FEBFFFF7FEBF18
:100C1000FFF7FEBFFFF7FEBFFFF7FEBFFFF7FEBF08
:100C2000FFF7FEBFFFF7FEBFFFF7FEBFFFF7FEBFF8
:100C3000FFF7FEBFFFF7FEBFFFF7FEBFFFF7FEBFE8
:100C4000FFF7FEBFFFF7FEBFFFF7FEBFFFF7FEBFD8
:0D0C50000001F9000010FC000124F4E70091
:1060000020100020F51602082D1E02082F1E02087F
:10601000311E0208331E0208351E0208FBB60208B4
:10602000000000000000000000000000371E020811
:10603000391E0208000000003B1E02083D1E020837
:10604000FFB6020803B70208411E020807B702089C
:106050000BB702080FB7020813B7020817B70208F8
:106060001BB70208471E02081FB7020823B7020821
:1060700027B702082BB702082FB7020833B7020868
:1060800037B70208FD1E0208031F02083BB70208CB
:106090003FB7020843B7020847B702084BB70208E8
:1060A000091F02084FB7020853B7020857B7020882
:1060B0005BB70208671E02086D1E02085FB7020880
:1060C00063B7020867B702086BB702086FB7020828
:1060D00073B7020877B702087BB702087FB70208D8
:1060E00083B7020887B702088BB702088FB7020888
:1060F00093B7020897B70208731E02089BB70208FD
:106100009FB70208A3B70208A7B70208ABB70208F7
:10611000AFB70208B3B70208B7B70208BBB70208A7
:10612000BFB70208C3B70208C7B70208CBB7020857
:10613000CFB702089D1E0208D3B70208D7B70208DE
:10614000DBB70208DFB70208791E0208E3B70208CE
:10615000E7B70208EBB70208EFB70208F3B7020887
:10616000A0F50208020201EC020301ED020401EEB7
:10617000020501EF020601F0020701F1020801F237
:10618000020901F3020A01F4020B01F5020C01F607
:10619000020D01F7020E01F8000F01F9001001FADB
:1061A000001101FB001201FC001301FD021401FEAD
:1061B000001501FF0216010000170101001801027D
:1061C000021801030019010402190105031901064F
:1061D0000519010706190108081901090D19010A15
:1061E000020201EC020301ED000501EE000601EFE1
:1061F000000701F0000801F1000901F2000A01F3B3
:10620000000B01F4000C01F5000D01F6000E01F782
:10621000000F01F8001001F9001101FA001201FB52
:10622000001301FC021401FD021501FE001701FF1D
:1062300002170100001801010019010202190103EF
:10624000646100081F700000E06100081820000170
:106250005B160208691602080D1602083B160208B2
:1062600067140208FD14020829B8000800000000A5
:1062700065B80008AFB80008C5B80008D5B8000870
:10628000DBB80008EDB8000805B9000809B9000836
:1062900017B9000888ED00E010E000E014E000E02D
:1062A00018E000E008ED00E0050000001C00000020
:1062B000FFFFFFFF000000002000000000FFFFFFC5
:1062C0000800000020000000FF00000000000000A7
:1062D00024000000FFFF000000000000BD1A3CCDBC
:1062E000A6B8995899B740EB7B60FF4A503F10D24F
:1062F000E3B3C974385FC5A3D4F6493F512563FCA5
:10630000C2CAB9F3849E17A7ADFAE6BCFFFFFFFF30
:10631000FFFFFFFF00000000FFFFFFFFE69D350EBF
:10632000480103CCDBFDF4AC1191F4EFB9A5F9E918
:10633000A7832C5E2CBE97F2D203B0208BD2891596
:10634000D08E1C742430ED8FC24563765C15525A92
:10635000BF9A32636DEB2A65499C80DC0FDB020833
:106360000FDB02080FDB02080FDB020815E602084C
:1063700015E6020821E202080D9B02080D9B0208A7
:10638000E3E10208E3E10208E3E10208E3E10208D5
:106390000000000021E202080000000000000000F0
:1063A00000000000000000000000000000000000ED
:1063B00000000000000000000000000004000000D9
:1063C0000C00000001000000000000000C000000B4
:1063D0004000000006000000000000001E00000059
:1063E00028000000460000005A0000006400000081
:1063F0006E0000007E0000004DCB02086FD2020844
:106400009BCB020803CF0208B3D3020875D1020860
:1064100029CE02083DD4020881940208A9D40208BA
:106420009BD5020899CD0208F1D102086FCE02086F
:10643000E5D00208EDCB02083FCC020803CB0208EE
:106440006DD0020845CD0208C7D20208DD930208CC
:106450008DCC020805040000D12F020808040000BA
:10646000F9BA02080C08000009BF02081001000078
:1064700003BC020813FD00007D3102081A01000070
:10648000F5BA020830030000DBBB02085702000027
:10649000F1BA020801130000BFBC020802FE0000AE
:1064A00009BC0208030A00003FBD0208040C0000FA
:1064B000EFBE0208050D000095BE0208060B0000A5
:1064C00005BF0208070B000077BD02080A1F000085
:1064D000F9BD02080BF20000B7BD02080C0600006F
:1064E000D1BE020814040000ADBC020804E007029B
:1064F0000293100F0295C802020A08050298028949
:1065000002980000020A00000295E01E028839008D
:1065100002DB1F000297F00002E807000297F1502B
:106520000297F0000295C0000297500002E80000B8
:10653000029740000288310002DB00000295C21E73
:106540000298804B02980000027201000298804B72
:10655000029800000295C00002720000029314002D
:106560000295D002020A061E029741860297400059
:106570000222020002736D000297121402971000AB
:1065800002736C0002220000020A00000295C000A3
:106590001293100014E0010A0400000002FF020040
:1065A0000220DE000221D0000222B9000209CF0041
:1065B000020AB500020C0A00020DCF00020EB5005F
:1065C000023C0B00023D0F00023E1F000224DE00D1
:1065D0000225D0000226B90002040A000205CF00FD
:1065E0000206B50002400B0002411B0002421F00E0
:1065F0000227F8000228DE000229CF00022AB90093
:10660000020F0A000210DC000211C7000212B100E2
:106610000243090002440B0002450F0002461F001E
:106620000247090002480B0002490F00024A1F00FE
:10663000021A0500024E200002FF010002AFE50031
:1066400002B0E50002B1E50002B2E4000256070024
:1066500002FF000002680C0002DC04000284DD007E
:106660000258050002B1B800026E0C000209460093
:10667000024A040002E903000227230002F7400057
:10668000128C0600E8000000028D0000028E00005F
:1066900002CD000002EC020002FF02000262900044
:1066A0000265C10002668900026789000268EE0087
:1066B0000269F200026A8000026B3600026CA100DF
:1066C000026DC200026ED700026F00000270B500BA
:1066D0000273C00002747C000275870002764E00CF
:1066E0000277F6000278F60002793900027A470054
:1066F000027BC000027C860002FF000002750C00D5
:1067000002FF010002BE000002C0000002C2000041
:1067100002C4000002C7010002C9030002CB060048
:1067200002CD0E0002CF1B0002D12F0002D34B007E
:1067300002D56D0002D7910002D9B20002DBCE0073
:1067400002DDE30002DFF00002E1F70002E3FB00FC
:1067500002E5FC0002FF000002813000028202001C
:10676000128B0400DC00000002FF0200027D00002A
:10677000027EB5000281C00002827C000283870095
:1067800002844E000285F6000286F6000287390078
:10679000028847000289C000028A860002FF0000CA
:1067A00012FCBC003C000000A800000004E0070050
:1067B00004E0050014E001000C00000004E0050105
:1067C00004E0070314E003000C00000004E00501EE
:1067D00004E0070314E003000C00000003001A00AB
:1067E0000300010003010100030201001303010083
:1067F0001000000038080000F8030000030000004B
:106800003808000000FC01000A0000003808000001
:106810000000FE0011000000380800000000007FAA
:1068200018000000400800007F0000000000000089
:106830004008000000007F00100000003C0800003D
:10684000F803000003000000280000003C000000E6
:106850005C00000004000000E8000000029300005B
:10686000021100001237C0000C000000029300006B
:106870001296000008000000140000002000000034
:10688000200000002400000002FF00000293100F0F
:10689000021101001237D00010000000200000009B
:1068A0002000000020000000280000002800000058
:1068B000280000002800000013F20200040000007D
:1068C0000800000013FA010004E0000A14E0010AC5
:1068D0000C000000080000008BEB0208194E0208B3
:1068E000F7CA02086993020865C4020817D60208AD
:1068F00069340208794B0208D5B50208F38D000807
:1069000023AD000881B5020809F10208754F02089D
:1069100041920208BD5002089DB3020839B6020830
:1069200065AE020855C3020841BF020802C9000053
:106930001225000008000000080000000265150F85
:1069400004000000C268920841EA8201C1607047F9
:106950008068000F07E0826877490A4042F0010230
:1069600082607047806800F0010070477CB50021AC
:106970000091002000F0EAF800F066F880BB6F4854
:1069800001686D4E41F020010160006800F02000B8
:1069900000900098A968314041F08051A9602846D4
:1069A000FFF7D6FF0028FAD0E868002100F00300C6
:1069B00000902846FFF7C6FFA868064046F000464C
:1069C000AE60A868C00FFCD100992846FFF7BAFF57
:1069D000004600462846FFF7BEFF2868C007FCD5E2
:1069E00084F310880020BDE8764000F0B0B838B5D8
:1069F000012000F0ABF800F027F8F0B1A9684E488C
:106A0000014041F00201A960012129602846FFF7F9
:106A1000A9FF0128FAD0A8680009C007FBD4A9681B
:106A200047480140A9602846FFF792FF0128FAD0A5
:106A30004248016821F02001016084F310880120A0
:106A4000BDE8324000F083B8EFF3108472B63D4DDC
:106A5000284687E770B504463B4D286E20B128468E
:106A600000F08CF9060018D1542204F10801281D09
:106A700000F044FB284600F07DF8060009D104F13F
:106A80005C01284600F0E3F9060002D1206828677F
:106A900003E05421281D00F089FB304670BD38B555
:106AA00005460021274CADF800102046FFF75AFF9D
:106AB000012821D1A06880071ED4A06840071BD4FC
:106AC000A1681D48014041F00401A1602068400711
:106AD000FCD504212160E86830B104280FD00828D3
:106AE00015D00C281CD023E04FF48051ADF80010D5
:106AF000206CC0F30B0019E000F0A2FCE6E74FF4B5
:106B00008060ADF80000216CC1F3090105E04FF48D
:106B10008071ADF80010216CC9B2ADF8001007E02B
:106B20004021ADF80010206C00F03F00ADF80000EF
:106B3000BDF8000032BD0000E8FFFF7F940C024664
:106B4000E8FFFF6F00100246403F0020704770478B
:106B500070477047704700000C00270010B543696C
:106B600001F0040107248C40A34302FA01F1194308
:106B7000416110BD2DE9F8434FF00008040047467D
:106B80002DD004F15C06706828B9204600F077FC2F
:106B90000020B060307020684FF480598068C000D9
:106BA0001FD42168DFF8A404C1F8009021688A6826
:106BB000024042F080528A6000F012FD05462068D3
:106BC0000068C1040DD400F00BFD401B0228F6D371
:106BD00020680068C104F2D4706800F0C7F8012092
:106BE000C2E021688868C00009D472684FF00108CB
:106BF00042F010027260B06840F00100B060886836
:106C00007268D30600D4400700F1A780726804F1CF
:106C1000280522F4807242F0020272608868DFF870
:106C20009824C0071ED4CB68A06823F00C0303434C
:106C3000CB60287FEF6A012807D1286A696A074379
:106C4000A86A0F43074347F0010720680169114014
:106C500039430161DFF8640461680368890C61F3FA
:106C600095430360286908B94FF000092369002B98
:106C70004CBF23F000434FF4001394F82000217E12
:106C80004FEA403C4CEA813149EA0109E16841EAB6
:106C9000090119432B7B41EA43092978012905D1D0
:106CA00010B949F4803901E000F0C3F8686830B1E8
:106CB00000F4E07040EA0901A86840EA010921688F
:106CC000DFF8FC03CB68034049EA0303CB6020688C
:106CD00001690A401743076121684A6CE369607ED5
:106CE0009208034343EA82024A646A6920680021E9
:106CF000FFF734FFAA692068DFF8C813FFF72EFFFB
:106D0000206928B92068816A61F00F0181620FE073
:106D1000B0F5001F0CD121686FF00F02886A636A1A
:106D2000581E800000F01F008240F06802438A6213
:106D30002168DFF89403CA6802404A4507D1002160
:106D4000B1607168012060F3010171600BE070684F
:106D500020F0020000F00AF803E0706840F0100034
:106D600070604FF001084046BDE8F28340F010002B
:106D70007060B06840F00100B060704770B504000A
:106D800001D1012070BD04F15C05686840F002008B
:106D90006860204600F033F906000CD1204600F070
:106DA00057F9060004BF012068602168DFF81C0362
:106DB0008A6802408A602168DFF814034A6802404A
:106DC0004A60226840F29F31DFF8080311602168B1
:106DD0000022CB680340CB6020684169C908C90024
:106DE00041612068816A82622068016A01F0F021B5
:106DF00001622068416A01F0F02141622068C16AA5
:106E000001F0F021C1622068416C490849004164E9
:106E1000DFF8A802016821F47C010160204600F03F
:106E20004DFB0020E8600021A960686029703046B1
:106E300070BD706840F020007060B06840F00100E4
:106E4000B0607047606E40F00100606670472DE9E9
:106E5000F8470023009300F15C0425780A460021DE
:106E6000012D08BF022000F0C88001232370D0F854
:106E700000C0DCF808305B0700F1B780D2F804E00E
:106E80000369DFF85452DFF85462DFF83072DFF83C
:106E90005082BEF1020F00F08480B3F1004F18BFA2
:106EA000434509D11368DCF828E0C3F3110343EA32
:106EB0000E03CCF8283033E013685FEA83380EBF46
:106EC000C3F3846993FAA3F3B3FA83F9D4F80CA05B
:106ED0000EF01F0E4FF00F0808FA0EF32AEA030314
:106EE00009FA0EFE4EEA0303E3605368D0F824E08B
:106EF0004FEA930909F10109CE4511D3D2F800E018
:106F0000DCF8289003F01F0308FA03F8CEF3836E31
:106F100029EA08080EFA03F343EA0808CCF82880A7
:106F2000D0F800E09368D2F800C0DEF81480DFF8F3
:106F3000B40103EA0C2328EA0C28034043EA0803BF
:106F4000CEF814301068002854D53A68B04202F4E4
:106F500040021BD110024DD43B68DFF88C0123F4B2
:106F600040031A4342F400023A600268DFF87C31C1
:106F70000C20B2FBF3F35B1C434300930098002802
:106F80001EBF0098401E0090F8D133E0A84231D1D6
:106F900050022FD43B6823F440031A4342F480028A
:106FA00021E0B3F1004F18BF434508D11068DCF869
:106FB0002830C0F3110023EA0000CCF82800106844
:106FC000002817D53A68B04202F4400203D138686D
:106FD00022F4000204E0A8420CD1386822F48002B6
:106FE00020F4400002433A6004E06068012140F070
:106FF00020006060002020700846BDE8F28738B5A8
:1070000004462168886840071DD58868800705D434
:107010008A680E48024042F010028A6000F0E0FAEE
:1070200005462068816848070DD500F0D9FA401B55
:107030000328F6D3206881684807F2D5216E41F015
:107040001001216656E0002032BD0000E8FFFF7FFE
:1070500038B50446216888688A68D20729D5800730
:1070600027D48A6802F00502012A1DD18A682048C7
:10707000024042F002028A6020680321016000F0B1
:10708000AFFA054621688868C10712D500F0A8FA52
:10709000401B0328F6D320688168C807F2D5216E0B
:1070A00041F01001216603E0206E40F010002066E0
:1070B00020E0002032BD000002FCFFDF0813024682
:1070C0000D82DEFF04FFFF03F3FF3F83E8FFFF6F46
:1070D00060FCFFFF00821E8301000080002000B4DE
:1070E0001000008000FFFF03D4420020400D030089
:1070F000E8FFFF7FFFF7A6FE012032BD62B38B07DA
:1071000008D0521E11F8013B00F8013B00F024802A
:107110008B07F6D1830740F0208000BF103A07D3D9
:1071200030B4B1E83810103AA0E83810F9D230BCC9
:10713000530724BFB1E80810A0E8081044BF51F875
:10714000043B40F8043BD20724BF31F8022B20F85F
:10715000022B44BF0B7803707047121F17D35B00DC
:1071600009D151F8043B20F8023B1B0C121F20F8F8
:10717000023BF6D20BE051F8043B00F8013B1B0A3E
:1071800020F8023B1B0C121F00F8013BF3D238BF62
:10719000121D521E24BF11F8013B00F8013BF8D824
:1071A000704760000600F000F0006000002200F070
:1071B0001DBA30000600A000A000300080B500F02D
:1071C00033FA00F04BFA00F014F800F063F800F026
:1071D00002F900F073F800F0A2F800F0B8F800F03F
:1071E000A7F800F088F8002000F047FA00F018FB3C
:1071F000FCE780B598B0402108A8FFF7D7FF202111
:107200006846FFF7D3FF022000F0E6FB002000F005
:10721000B9FB08B100F014F900F048FC7E480268A0
:10722000012161F3C4024FF4803102604FF48012F7
:1072300009910A9281214FF4807207200B910C92E0
:107240000890102100220D91109208A800F052FC25
:1072500008B100F0F5F83F210091002102220291CF
:107260000192402100220491039205920692079216
:107270000121684600F093FE08B100F0E1F8022019
:1072800001F028F80E2001F05BF808B100F0D8F802
:1072900019B000BD80B592B048216846FFF786FF5F
:1072A0004FF480204FF4004211900092684601F0A4
:1072B00091F808B100F0C4F813B000BD80B557488C
:1072C0000168002241F0010101600068062100F020
:1072D0000100009000981D2000F09DFF1D2000F08F
:1072E000C1FF002205211E2000F095FF1E20BDE8F1
:1072F000024000F0B7BF80B54948016841F4807191
:107300000160002001F0AEF908B100F099F801F039
:10731000B5F900B100E001BDBDE8014090E080B5E5
:1073200040484149016001F0B9F900B1F4E701BDFD
:1073300080B53E483E4920220160426001F0D4F908
:1073400008B100F07DF8BDE8014001F041BA30B568
:1073500093B01C216846FFF729FF302107A8FFF7EB
:1073600025FF344C344820604FF080401F2100221C
:10737000E0614FF48075A16022616261A2612262C6
:107380006562204601F02AFB08B100F059F800219F
:1073900000910391049105916946204601F005FD95
:1073A00008B100F04DF8204601F0E9FC08B100F00A
:1073B00047F800204FF07C510E9008900C900D91F2
:1073C0001295012207A9204601F05BFB08B100F0ED
:1073D00037F813B030BD82B01848016841F002019F
:1073E0000160026802F0020200920099026842F015
:1073F00001020260036803F0010300930099026830
:1074000042F004020260006800F00400009000985E
:1074100002B001F0EDBC0000F00C0246880C024600
:1074200004080246B8920020006002400C9200203E
:1074300000080C42CC8F0020007800468C0C0246DD
:1074400072B6FEE780B55E480168002241F0040193
:1074500001600068012100F00400009000980920FC
:1074600000F0D9FE092000F0FDFE00220521422097
:1074700000F0D1FE4220BDE8024000F0F3BE10B59E
:1074800092B000F06DF822684E498A4214D14FF450
:107490000053002100930F91684600F09BFF08B154
:1074A000FFF7CEFF4648016841F020010160006807
:1074B00000F020000090009812B010BD0068414913
:1074C000884204D13E48026822F0200202607047E0
:1074D00081B000683C49884209D13C48026842F4C6
:1074E00080520260006800F480500090009801B063
:1074F000704700683449884204D13448026822F455
:1075000080520260704781B03048016841F4003118
:107510000160006800F400300090009801B07047EE
:1075200010B592B000F01CF8226829498A4215D1A2
:107530004FF480734FF4005100930991684600F0B6
:1075400049FF08B1FFF77CFF2248016841F4802120
:107550000160006800F480200090009812B010BD17
:10756000044648216846FFF721BE18B593B004468B
:10757000482101A8FFF71AFE226817498A421DD147
:107580004FF480434FF480710193119101A800F0F2
:1075900021FF08B1FFF754FF10480168002241F4B1
:1075A000001101600068042100F4001000900098B0
:1075B000022000F030FE022000F054FE14B010BD96
:1075C000940C02460010024600300240880C02462D
:1075D00000080C428C0C024600780046A80C0246BB
:1075E00001484068704700BF8C42002000B500BFD2
:1075F000130096469446103928BFA0E80C50FAD8DC
:107600005FEA417C28BF0CC048BF40F8042BC90783
:1076100028BF20F8022B48BF00F8012B00BDD00482
:107620008901D0047801890180B50B48016841F4D3
:1076300080710160032000F0E1FD01F0E7FB042010
:1076400000F048FE0E2000F07BFE08B1012002BDD4
:10765000FFF7F8FE002002BD0020024080B50021A7
:1076600000916946002001F045FC002812BF0C2063
:107670000098807B00F0D5FF01BDF8B586B00020F2
:1076800001F0B4FBA74CA06EA74D40F40000A0662B
:1076900001F048FCA54800F00FFA01F063FD01205D
:1076A000287001F069FE142101A8FFF77FFD032077
:1076B00000214FF46042029003910192216841F051
:1076C00001012160206801A900F0010000900098EC
:1076D000974802F02FF9032000211822029003910D
:1076E0000192216841F002012160206801A900F0A7
:1076F0000200009000988F4802F01CF902F0DEF9B9
:107700008D48016841F480510160026842F0200216
:107710000260016841F400710160026822F02002F9
:10772000026002F01FFA281D02F048FA08B1FFF7C4
:1077300087FE824A0021202002F07AFC01F0EEF858
:107740007F4A0021012002F073FC7E4A0021802044
:1077500002F06EFC0121012002F0CEFC002102208B
:1077600002F0CAFC0021002002F0C6FC764C00208A
:1077700001210222207084F8201084F8402002F0B9
:107780001DFD0121012002F019FD0121022002F05E
:1077900015FD6E4A00214FF4007002F049FC6C4A5E
:1077A00000214FF4806002F043FC6A4A00214FF44C
:1077B000006002F03DFC00250FF28106271D04EB5E
:1077C000451107EB4510334600910022002101F0DE
:1077D000AFFB6D1C032DF2D35F4A0021402002F065
:1077E00027FC5E4801884FF6FF73994201D00800DC
:1077F00001D15B4803E0C9085A4800EB413002F070
:1078000087FD08B1FFF71CFE03F092FA0121022068
:1078100002F072FC002001F0EAFA002007B0F0BD8F
:107820004FF0FF3002F090BB890003F02BBF8000C7
:1078300003F0CCBE03F00FBF0000000010B50446FB
:10784000207802F030FD2077207818B1022809D086
:1078500004D310BD00214FF4007006E000214FF466
:10786000806002E000214FF40060BDE8104002F0AB
:10787000EDBB80B503F04AFF02F053F9BDE80140CB
:1078800003F04CBF80B50121374A1160264B1878B0
:1078900028B102F036F9022808BF03F047FF334849
:1078A000016841F40001016001BD80B53048016804
:1078B00041F001010160006800F0010000900098B3
:1078C00003F07DFF00210420BDE8044002F003B96D
:1078D0000021402002F0BABB0021012002F0B6BB1B
:1078E00024490160244A254B42608360704700218F
:1078F000202002F0ABBB0021802002F0A7BB00E0FB
:1079000000BF1F48016821F48071016070470E4973
:1079100001EB401000224FF4FA710277001D01F0D4
:107920005CBB00008C0C0246504000204000003040
:10793000000002420004024200080246079F0008BD
:107940008F89000813BF0008FC890020CBB4000811
:107950002BB500083DB50008B5E50008A007F90BF8
:1079600000C00F0800C0FF0738080246F40C0246AA
:10797000980C0246297800082F780008357800080E
:10798000000C024610B5DFF81021116B01F48031B4
:1079900081421DD01168DFF8043121F480310843A1
:1079A00010601C683220DFF8F8104443B4FBF1F19A
:1079B000491C084601E068B1401E13681C04FAD552
:1079C00040B101E031B1491E106B0304FAD509B191
:1079D000002010BD032010BD10B5DFF8C0201368D3
:1079E0003221DFF8BC404B43DFF8B820B3FBF4F1A1
:1079F000491C002810680AD120F002001060506B6A
:107A000083070DD5002918BF491EF8D10BE040F0BF
:107A10000200106001E031B1491E506B8307FAD5B6
:107A200009B1002010BD032010BD10B50246002092
:107A3000CB431D4C32B1012A0AD0022A0ED0072AAC
:107A400013D015E00A0413D0090C090410D111E079
:107A50000A040DD0090C09040AD10FE011F4604F9B
:107A600006D031F4604103D10CE0082900D10DE0CB
:107A7000012010BD21680B40236010BDA1680B40A0
:107A8000A36010BD21690B40236110BDA16B21F0E3
:107A90000801A16310BD00000C080246D44200207A
:107AA00040420F0008080246540802460F48016889
:107AB00041F001010160704730B50D4B596800F08D
:107AC000FF020325914341EA1021596092FAA2F185
:107AD0009C68B1FA81F149008D40AC4344EA1044FE
:107AE0009C60186802431A6030BD000028080246F6
:107AF000140802462DE9F84F040044D0DFF8B876A8
:107B0000D7F81C90D7F828A0207809F00C090AF0C3
:107B10000305C1072AD5B9F1080F04D0B9F10C0F3C
:107B200008BF032D62D1606800282CD0B9F1080F7E
:107B30001CD13968A068012221F48811014341F465
:107B4000803139603868DFF89016DFF88836000D2C
:107B500000F001008240B1FBF2F1DFF87426116001
:107B6000186800F0EDFB002840F0E98120788107DB
:107B700012D5B9F1000F04D0B9F10C0F08BF022DD6
:107B800057D12069002800F0DA813869616920F452
:107B9000F81040EA014038612078DFF84086DFF8CD
:107BA0004056010740F1C08028684FF0000A4107A5
:107BB0000AD428684FF0010A40F0040028602968C0
:107BC00001F0040100910098D8F80010C80751D4C2
:107BD00000F0DDF90646D8F80000C1074AD4FFF7E7
:107BE000FFFC801B0328F6D303207FE1606888B187
:107BF0003A68A16822F488121043084300F0C4F9DF
:107C0000064638688103B1D4FFF7EAFC801B65287B
:107C1000F7D3E9E7386820F4881000F0B5F9064694
:107C200038688103A2D5FFF7DBFC801B6528F7D3FA
:107C3000DAE7206978B1396841F480713960FFF77B
:107C4000CFFC0546386841059FD4FFF7C9FC401BAF
:107C50000328F7D3C8E7386820F4807000F094F95F
:107C600005463868410597D5FFF7BAFC401B032845
:107C7000F7D3B9E7EE6DA069002843D040011AD5CB
:107C8000E16906F08050814211D031010FD526F014
:107C90008066EE65FFF7A4FC8346E86D010106D51A
:107CA000FFF79EFCA0EB0B001528F6D39CE7E169DB
:107CB00026F080560E43A0690643EE65FFF790FC60
:107CC0000090B346A669E86D10EA460F06D1FFF7AB
:107CD00087FC0099401A1528F4D385E786F01056E2
:107CE0002BEA060BC5F85CB0FFF77AFC8346E86D1B
:107CF00010EA460F16D0FFF773FCA0EB0B00152817
:107D0000F5D371E726F01056EE65FFF769FC0646DD
:107D1000E86D10F0904F05D0FFF762FC801B15282E
:107D2000F6D361E700F028F9217848076CD5296877
:107D30004FF0000A48070AD429684FF0010A41F0C1
:107D400004012960286800F0040000900098D8F829
:107D50000010C8070CD400F01AF90646D8F8000045
:107D6000C10705D4FFF73CFC801B0328F6D33BE793
:107D7000E06841F2893828B3E96D21F080010843B9
:107D8000E865FFF72DFC0646E86D810705D4FFF78F
:107D900027FC801B4045F7D326E7207B010608D54A
:107DA000E86D01052ED4FFF71BFC801B4045F7D37F
:107DB0001AE7E86D010525D5FFF712FC801B404549
:107DC000F7D311E7E86D20F08100E865E86D20F059
:107DD0000400E865FFF704FC0646E86D810705D559
:107DE000FFF7FEFB801B4045F7D3FDE6E86D01067B
:107DF00008D5E86D010505D5FFF7F2FB801B40456E
:107E0000F7D3F1E600F0B8F8206A00286DD0B9F198
:107E10000C0F6DD00228386820F08070386053D184
:107E2000FFF7DEFB0546D7F800A0FFF7D9FB401BA4
:107E30000328E6D25FEA8A10F5D4626A032A07D1E2
:107E40004FEA1A51DFF8900301F00101C84001E048
:107E5000DFF87803A36ADFF88C13B0FBF3F08842F5
:107E60002CBF0C210021D7F82890DFF87C035B1E83
:107E700000EA09000243114341EA032141F4802151
:107E8000B962E06A216B401E491E40EA4120616BE5
:107E9000491E40EA0140A16B491E40EA0160786337
:107EA000E06B10B100F062F8B862386840F08070A2
:107EB00000F06AF804463868810116D4FFF790FB99
:107EC000001B0328F7D38FE6FFF78AFB04463868C8
:107ED000810105D5FFF784FB001B0328F7D383E658
:107EE000B86ADFF808130840B8620020BDE8F28FD6
:107EF000012824D0B86A796B636A00F003029A42C1
:107F000001BFC0F30220A26A521E904217D1E26A5A
:107F1000C1F30800521E904201BFC1F34620226BFC
:107F2000521E90420BD1626BC1F30640521E90422A
:107F300001BFC1F30660A16B491E884201D0012038
:107F4000D4E7B86BE16BC0F3CC008142CDD0B86A06
:107F500020F01000B862FFF743FB0546FFF740FB37
:107F6000401BFBD0E06B00F001F8BDE7C000B86338
:107F7000B86A40F010007047BAF1000F03D02868CB
:107F800020F00400286070473860FFF729BBD8F85C
:107F9000001041F00101C8F80010FFF721BB2DE9E6
:107FA000F0410400884637D0DFF84462306800F0C2
:107FB0000F00404509D23168090948EA01113160D2
:107FC000306800F00F00404526D12178880609D599
:107FD000DFF8F4211368A169E06923F017030B436C
:107FE000034313602178DFF8D051C80742D52868D1
:107FF000616803290CD180016BD5E96901F00C019E
:108000000C290CD0A96A012060F31551A96206E081
:10801000022902D1800302D45BE0410559D5EA6907
:108020006068920840EA8202EA61FFF7D9FA0746DF
:108030006068E96901F00C01B1EB800F08D0FFF72F
:10804000CFFAC01B41F289318842F1D3032052E0BC
:1080500003280FD1A86A20F48010A862FFF7C0FAA5
:108060000746A86A410205D4FFF7BAFAC01B0B28DD
:10807000F7D3EBE7296A22680020930704D5A068AC
:10808000C90840EAC1010120530704D5E06821F086
:10809000700101430120120705D5206921F4E06138
:1080A00041EA001100E000B129622078C10644BF16
:1080B00060696862316801F00F0188450BD2306851
:1080C000000948EA00103060316801F00F014145B5
:1080D00001D001200FE000F010F82A6A45493C4B1E
:1080E00002F00702895CC84018603A480068BDE8A1
:1080F000F04100F025B9BDE8F0812F49C86910F0C2
:108100000C0001D131487047082818BF00F010B8A2
:1081100009683148090D01F00101C840704710EEAF
:10812000100A491CB0FBF1F010BD3348046807E0A9
:1081300010B5FFF7FAFFBCEEC00AC4F30661EEE724
:108140001D48416BC1F30801491C00EE101A816AF9
:10815000B8EE400AC1F30222521C00EE902AF8EE5B
:10816000600ACA0643BF826BC2F3CC0201EE102A3A
:108170009FED121A01F00301B8EE411A022902D054
:10818000032903D00DE0DFED0E1A0CE00068124960
:10819000000D00F00100C14001EE901AF8EE611AE6
:1081A00001E0DFED061AC1EEA00ADFED061A01EECE
:1081B000210A20EE800A7047000C024600000000F1
:1081C0000024744B00000039000E02460024F40025
:1081D000D4420020944200200048E80128080246CA
:1081E000940C024601127A00E0F8FFFFFCFFF8FF52
:1081F00000200240EC8E0008340C0246474B196800
:108200004FF6FF020002114000F4E06008434449C9
:1082100008431860704770B5404B1C68C4F30223D4
:108220000124C3F10705052D2EBF0F2504FA05F51E
:108230006D1E1E1D072E34BF0023DB1E29409940F2
:1082400004FA03F35B1E1A4011430901020002D431
:108250003448815470BD344B02F00F021A4402F8C6
:10826000041C70BD010007D4012200F01F018A40E8
:108270002E4B400943F82020704701000BD4012207
:1082800000F01F018A402A4B400943F82020BFF329
:108290004F8FBFF36F8F7047401EB0F1807F07D2C2
:1082A0002449486000228A600B6843F003030B6096
:1082B000B0F1807F8041C043C00F7047010007D4F8
:1082C000012200F01F018A401B4B400943F8202087
:1082D000704700001949174A04281ED8DFE800F04B
:1082E0000811141D0300106840F00400106070476E
:1082F000136823F004031360086820F4400008604A
:1083000070471368012001E01368022023F0040382
:1083100013600A6860F397520A6070470CED00E042
:108320000000FA0500E400E018ED00E000E100E0E4
:1083300080E100E010E000E000E200E0E00C024636
:10834000F8B504461F4D2878002100282ED01E4A7B
:1083500012681E4B1E68770702D54FF47A710DE044
:108360001B4B1B6813F4400306D0B3F5800F08D0F5
:10837000B3F5000F0ED015E04FF4FA51B1FBF0F059
:108380000EE04FF47A72B2FBF0F24FF4FA43B3FB13
:10839000F2F107E04FF47A71B1FBF0F04FF40042D4
:1083A000B2FBF0F10846FFF777FF08B10120F2BDFC
:1083B000002221464FF0FF30FFF72DFFAC60002078
:1083C000F2BD00BF8C420020D442002010E000E04B
:1083D000E00C02462DE9FC4707463878DFF86C428E
:1083E000C10705D522687868920840EA82022260B7
:1083F0003978880705D52168B86821F00C01014358
:1084000021603978480705D52168F86821F4406172
:10841000014321603978080705D52168386921F4BE
:108420004021014321603978C80605D52168786963
:1084300021F44011014321603978880605D521686F
:10844000B86921F44001014321603978480605D517
:108450002168F86921F00041014321603978DFF893
:10846000F051080611D56168386A21F0E001014336
:108470006160386A18B9286840F4803004E0202828
:1084800003D1286840F4003028603968C8050DD54C
:108490006168786A21F4405101436160796AB1F5FD
:1084A000405F03D1286840F40030286039688802B2
:1084B00012D56168B86A21F0804101436160B86AF1
:1084C00018B9286840F4803005E0B0F1804F03D13E
:1084D000286840F4003028603968880505D5A1680F
:1084E000F86A890840EA8101A1603968480505D524
:1084F000A168386B21F018010143A16039680805B3
:1085000005D5A168786B21F0C0010143A1603968ED
:10851000C80405D5A168B86B21F440610143A1608E
:10852000396888040DD5A168F86B21F4E041014356
:10853000A160F96BB1F5005F03D1286840F4803089
:1085400028603968480458D5D4F81080386C4FF04A
:10855000000908F4407880454FD0E96E48070AD4F6
:10856000E96E4FF0010941F00401E966E86E00F0A0
:10857000040000900098DFF8DC60306840F00100F3
:108580003060FFF72DF882463068C10707D4FFF747
:1085900027F8A0EB0A000228F6D903203FE026695D
:1085A000B8F1000F26F4407609D0A069216941F4A2
:1085B00080312161216921F480312161A061396C10
:1085C000DFF894003143216106400FD0FFF708F82F
:1085D0008046206910EA460F08D1FFF701F8A0EBAA
:1085E000080041F289318842F3D3D6E7B9F1000F90
:1085F00003D0E86E20F00400E866386801040DD569
:108600002269786C22F44022024322612169786C4D
:1086100001F44021814218BF012000D10020BDE8B3
:10862000F6870E490A6822F47C1242EA00420A6088
:1086300070470B48016841F002010160704708482B
:10864000016821F00201016070470000E00C024661
:10865000280C02462808024601000024100E02469B
:10866000080E024610B500F010F801D5012010BD2B
:10867000136823F004031943116010BD0648016814
:1086800041F00101016000207047034A1368014670
:108690000020DC07704700000004034010B5040010
:1086A00001D1012010BD022020712046FEF72BFFD2
:1086B0000020A0600121217110BD022181600120F4
:1086C00070470B6001210171002070470279012A77
:1086D00004D10223037102681160F3E7EDE700683B
:1086E000006800F4E020704738B5040001D1012093
:1086F00032BD607A20B9002121722046FEF710FFBA
:10870000022060722068016821F004010160226883
:108710002449136860680B402349034343F08043B6
:1087200043F40053136022684AF6C720116023689F
:10873000186100F03FF8054600F038F80CD5FEF758
:108740004FFF401B0B28F7D300F030F8F4D5012081
:1087500060720221E16032BD016841F004010160F4
:1087600020684168480602D504216172BFE7FEF720
:1087700037FF054620684168C8070DD4FEF730FF73
:10878000401B0B28F6D320684168C807F2D40421A7
:1087900061720220E060AAE7012060720021E160BE
:1087A000002032BDDF1FFFBF002DF00020680168F0
:1087B0004A0070472068016821F080410160FEF79F
:1087C0000FBFFA00960064004B0032001E00140038
:1087D00080B50420FEF7BAF97D48016821F0040154
:1087E0000160012000F020F80420BDE80240FEF7FF
:1087F000AEB938B5044603F007F8EFF3108172B64E
:10880000744A92F8820048B9734B1D6845F480257C
:108810001D601B6803F480230093009B044382F8CF
:10882000824081F3108831BD82B0EFF3108272B6BE
:10883000684991F8823023EA000081F8820082F3CF
:10884000108891F8820040B9B222009202E00098AC
:10885000401E009000980028F9D1EFF3108272B604
:1088600091F8820020B95C48016821F48021016000
:1088700082F3108802B0FFF742B82DE9F0410646B6
:1088800006F1800778780025514C78B90320FEF76F
:108890005DF90120FFF7ADFF206840F00400206083
:1088A0000320FEF754F90120787034E060688007F7
:1088B00005D56FF02001616040F201152BE0606882
:1088C000400609D56FF0400161600C20A168401E90
:1088D000FCD14FF481751EE03878202818DAEFF3C8
:1088E000108872B60520FEF731F905E0A16846F858
:1088F00020103878401C38703878202802DA6168F7
:10890000C907F3D40520FEF722F988F3108802E0A6
:10891000FFF75EFF7D702846BDE8F08138B52D4C2D
:1089200004F18005002028806860A8702046FFF7C9
:10893000A4FF6860687810B168680028F6D031BD7F
:1089400070B5244B03F18004EFF3108516E0521E3E
:108950002270D2B253F822200CE072B62278002A9C
:10896000F5D140F20312C6B2626006F01F0653F85A
:108970002620D24385F3108841F8042B0246501E6E
:10898000D2B2002AE9D1BDE87040FEF7A5BF114878
:1089900038B500F180056978002411B92A78202AB9
:1089A00013DAEFF3108172B66C6800226A6081F30B
:1089B00010883CB9FFF761FF040003D1687820B14B
:1089C000012400E00CB1FEF787FF204632BD000015
:1089D00000080C42A08700208C0C024670B50446AB
:1089E0000120002C49D004F12C05697821B9002020
:1089F00028702046FEF7B9FD02216970DFF8206378
:108A00003068C10636D4CA20B0615321B161204616
:108A100000F03CF9010028D1F168DFF808030140BB
:108A2000F160F268606821690243A0690A43024369
:108A3000F260E168A06841EA004171603268616AF1
:108A4000A06A22F4F8520A4302433260204600F042
:108A500041F9010009D1F368226AE16923F060431A
:108A6000134362690B431343F360FF21B1610200BA
:108A700003D100E000200121697070BD8246687852
:108A800056E12DE9F04700F04BF808BF022038D03E
:108A900000F083F819D082B9F868410658BFEC702D
:108AA000287800F045F9FFF7E9FF00F046F800F0FC
:108AB0003EF8E97844EA815405E0F968480658BF71
:108AC000EC7000F03FF800F024F800F01CF80BD137
:108AD00000F045F80CBF40F0006020F00060F86046
:108AE000F86840F488500AE000F065F80CBF40F0E8
:108AF000805020F08050F860F86840F4085000F092
:108B000045F8BDE8F087D9F80810F868B1F5807F1E
:108B1000704744EA0064296A68690C43044370475B
:108B200000F12C06307800240D460128704782465B
:108B300099F800004AEA0404FAE00402A87844EA3A
:108B40000A44F5E06C782878E978240244EA004485
:108B5000A878044344EA815499F80000704720F44F
:108B60008850F86001213965B8F5807F04D1A96982
:108B7000E8690143B96302E07C63A869B863686887
:108B80007866D9F80410F86801297047F860012068
:108B90007070002131700020704701203070022178
:108BA00071705F4FD7F8008005F1240908F4407810
:108BB000B8F5807F704720F40850F86002213965CD
:108BC000B8F5807F04D1A969E8690143396402E0FE
:108BD000FC63A86938646868B866D9F80410F86856
:108BE0000129704710F82C2F012A01D1022070476B
:108BF00001220270022343704B4AB1F5807F116855
:108C000007D121F488511160D36A23F00043D36265
:108C100006E021F408511160536B23F000435363C5
:108C200001214170002202700020704770B53F4D55
:108C30002E680446F10703D50122AA6002F073FEF4
:108C4000B00704D50221A960204602F07CFE012075
:108C500084F82D0070BD70B50446314D286820F0B1
:108C600020002860FEF7BCFC0646286881060BD46D
:108C7000FEF7B6FC801B40F2E9318842F5D3286844
:108C8000810601D40320E3E7002070BDF8B5054656
:108C9000234C2068002641061AD4206840F080004A
:108CA0002060FEF79DFC074603E00320032685F8BD
:108CB0002D00216848060BD4032E09D0FEF790FC46
:108CC000C01B40F2E9318842F3D320684106ECD55D
:108CD0003046F2BD70B50446114D2868002620F0DC
:108CE00080002860E968880608D42046FFF7B3FFB3
:108CF000A0B1032084F82D0003260FE0E86820F0DF
:108D00002000E8602046FFF7A6FF18B1032084F892
:108D10002D000326E86840F02000E860304670BD72
:108D20000C780046BFFF8FFB187800465478004649
:108D3000002101E0491C0A38C2B20A2AFAD240EAEC
:108D40000110C0B270470000280018007A017A01B3
:108D50000B600121417002700020704710F82C1F39
:108D6000012901D1022070470121017002224270C5
:108D7000DFF868100B68002243F02003E8E710F8E2
:108D80002C1F012901D1022070470121017002220C
:108D90004270DFF848100B68002243F08003D7E7E9
:108DA000104800EB81000260704710B50A684868FF
:108DB0000D4B02431A608C68CA688869084B1443DB
:108DC00004435C601A680869496922F0FF12024393
:108DD00042EA014200201A6010BD000018780046E7
:108DE000207C0046007D00461C7800467047704796
:108DF000704748F64C50C2F2000090F838007047B7
:108E00003548016841F470010160704730B533495D
:108E1000CB693348334A03F00C03082B02D00C2BE8
:108E200007D04BE010460A68120D02F00102D04054
:108E300044E08B6A4C6BC3F302256D1C00EE105AA4
:108E4000C4F30805C4F30664641C6D1C01EE104AEB
:108E500000EE905ADC0607D58C6BC4F3CC0401EE0F
:108E6000904AFBEEE91A01E0DFED1A1A03F0030362
:108E7000022B02D0032B03D00AE002EE100A09E015
:108E80000868000D00F00100C24002EE102A01E067
:108E90009FED102AB8EE422AB8EE400AF8EE600ABA
:108EA00082EE000A70EEA10A20EE200AF8EE410AD6
:108EB00080EE200ABCEEC00A10EE100A0A4A1060CA
:108EC000096A00BF09A301F00701595CC84010609E
:108ED00030BD00000000000088ED00E0000C0246FC
:108EE0000024F4000048E801D44200200000000003
:108EF0000102030440B5094A0A60094E02E0A2F1EA
:108F000010030B600A68D37B834218BFB242F6D1CC
:108F1000834201D0012040BD002040BDF001F90B8B
:108F20000000F90B00208D4908608D4A136818472E
:108F3000F8B5040015461E4611D030000FD0069F2C
:108F400000202060084600F05CF86060002020727D
:108F50006072A072E6602761E5726061F2BD012077
:108F6000F2BD2DE9F0410446002594B300F0B8F8B5
:108F7000002804BF607A00282BD1EFF3108672B668
:108F8000774F386AD4F804808047404538BF404660
:108F90002060012025726072A572DFF8C081D8F8C8
:108FA000000018B93869804720460AE0B869804750
:108FB000216840182060D8F80020136898422046A5
:108FC00002D200F0C1F801E000F0ABF886F310889F
:108FD00000E001252846BDE8F08110B504000846F0
:108FE00001D1012010BD00F00CF86060204600F0B7
:108FF00077F810B1204600F007F82046BDE8104091
:10900000AFE757494A6A1047F8B5002420B3EFF399
:10901000108572B6514E3268012787721346114689
:10902000BAB1447282420BD15069147218B13060E7
:1090300000F061F80DE04A48C1688847346008E0F4
:10904000814204D00B4649690029F9D101E0486901
:10905000586185F3108800E001242046F2BD2DE917
:10906000F8430024A046A146EFF3108572B63C4EAB
:109070007069804731690746384E8847C71B30689A
:1090800028B30268974238BFD21B12D30022B8F12E
:10909000000F0ED13368596931600272C17A427291
:1090A000012902BF817A00290446D0F81090D0F837
:1090B0000C80026040690028E3D114B12046FFF71C
:1090C00050FF306818B1017A09B900F014F885F33F
:1090D0001088B8F1000F1CBF4846C047BDE8F183B7
:1090E0001E49096800E0496919B18142FBD101209C
:1090F000704700207047F8B50446194D286A80472C
:1091000001212172AF690646B847216830188142B3
:1091100002D2B847361826602068A968BDE8F44036
:10912000084710B50D490A68536901E01A465B69A2
:10913000516931B11C6801688C42F7D350614361B9
:1091400010BD5061416110BD044A116809B100238E
:109150000B7241611060CEE700000000BC9300205C
:109160006862000810B502F0EFFB04000BD107485D
:10917000002101670022026605490160C266FDF711
:1091800036FC02F0E3FB204610BD00BF403F00204C
:1091900000100246DFF87407016841F48031016075
:1091A0007047DFF868070068400C3BE0DFF85C07B9
:1091B000016841F4801101607047DFF850070168D1
:1091C00021F4801101607047DFF844170A689208A3
:1091D00040EA820008607047DFF83407006800F05A
:1091E0000C007047DFF82C170A6822F0100212E01A
:1091F000DFF81807016821F0807101607047DFF81F
:109200001807016821F0100101607047DFF80C17A2
:109210000A6822F48032104308607047DFF8FC06C9
:109220000068C00B00F001007047000030B581B04D
:10923000044602F08DFB0020FFF7C6FFDFF8D05692
:10924000286810F00C0FFBD1FFF7A4FFFFF7A9FF70
:109250000028FBD014B9FFF7B0FF01E0FFF7A6FF2D
:109260000220FFF7B1FF286800F00C000828FAD1AF
:1092700001B0BDE83040FEF743BB000000B581B04F
:109280004FF48030FFF7C2FFFFF7C8FF0028FBD084
:109290000020FFF7CBFF032000F028FA01B00020E8
:1092A0005DF804EB9EE7000000B581B00220FFF7F7
:1092B0008BFF00BFFFF790FF0828FBD1FFF798FF57
:1092C00001B003205DF804EB10E2DFF84006816A8C
:1092D00041F480218162816A41F003018162026868
:1092E00042F080720260016D41F0400101657047FB
:1092F00038B5044660780025022803D1A06900F043
:1093000013F901E0FFF77BFF6168DFF81406DFF86F
:109310001426B0FBF1F1914228BF0C25DFF8F815B7
:109320000A68DFF8040622F00C0215430D600B6892
:1093300062680340521E43EA022343F003030B60BA
:10934000A068E268401E521E40EA42202269521E76
:1093500040EA02406269521E40EA0260C860DFF8DB
:10936000B4150A68E069D20840EAC2020A60012125
:10937000DFF8B825117331BD30B5DFF8B04581B0E5
:1093800004F10C0000210022002300252EC02EC075
:10939000DFF89C150A6804F1340002F00F026260E5
:1093A000FFF79DF984F83050A060DFF87055D5F8CC
:1093B0007C0440F40030C5F87C04D5F87C0400F44B
:1093C000003000900098D5F8100400F00C000C2834
:1093D00056D8DFE800F007555555555555551D55DC
:1093E0005555260001202070D5F8F41341F4801162
:1093F000C5F8F413D5F8F40540F01000C5F8F405ED
:1094000000F040F8286820F48030286001B030BDBA
:10941000D5F8F403C00254BF02200120207001B02F
:1094200030BD03202070D5F81C04C0F30220401C7E
:109430002061D5F82804C0F30800401C6061D5F80D
:109440002804C0F34620401CA061D5F82804C0F3CE
:109450000640401CE061D5F82804C0F30660401CBB
:109460002062D5F82C04C0F3CC006062D5F8F40576
:1094700000F00700A062606A022818BF0120607334
:1094800001B030BD30B581B00C20FDF75FFBDFF8D7
:109490008C44D4F8F403DFF8945440F48030C4F8DA
:1094A000F403D4F8F403800321D595F83010012992
:1094B0001DD1D4F81014022060F30101C4F8101477
:1094C000D4F8100400F00C000828F9D1032000F0B3
:1094D0000DF9D4F8F40320F48070C4F8F40329786B
:1094E000032908BFFFF7F1FEFFF790FC16E002200A
:1094F00000F0FCF82878012803D0216841F480317D
:109500002160D4F8F403800302D500F06DF905E082
:10951000D4F8440440F01000C4F8440401B00C2016
:10952000BDE83040FDF713BBDFF8EC130A6822F00A
:1095300010020A600B696FF3CF0343EAC0030B61AB
:10954000086840F010000860FFF760BC00000000F1
:1095500070B5EFF31184102282F31288DFF8CC5338
:1095600005F12C03195495F82C00002100B1014697
:1095700095F82D00814238BF014695F82E008142B2
:1095800038BF01462878884200F0A8802970DFF8AB
:109590008C63D6F8100410F00C0F4CD128780128F9
:1095A00006D1316821F48031316084F3118870BDB7
:1095B000326842F48032326095F83000002800F0C2
:1095C0009180D6F8440420F01000C6F844043068B6
:1095D0000004FCD5D6F8F4038003FBD5D6F8F413C9
:1095E000022021F48011C6F8F413D6F8101460F3A9
:1095F0000101C6F8101400BFD6F8100400F00C00EA
:109600000828F9D1032000F071F8D6F8F40520F00D
:109610001000C6F8F405D6F8F40320F48070C6F8FC
:10962000F4032978032908BFFFF74FFEFFF7EEFB8D
:1096300084F3118870BD0D20FDF788FA2878012881
:109640002CD045D3032801D00BD341E0D6F8F40346
:10965000C00203D5FFF712FEFFF7D8FBFFF735FE78
:1096600036E0D6F8F403C00202D5FFF707FE2DE07E
:10967000D6F8100400F00C000C2802D1FFF714FEFD
:1096800024E0D6F8F40320F08070C6F8F403D6F88E
:10969000440420F04000C6F8440419E0D6F8100451
:1096A00000F00C000C2808BFFFF7FEFDD6F8F4050B
:1096B00040F01000C6F8F405022000F017F8012071
:1096C000FFF7B4FD306820F480303060FFF79EFB78
:1096D0000D20FDF73CFA84F3118870BD032808BF04
:1096E00002F042F984F3118870BD0000042800D90B
:1096F000704710B5DFE800F00318325068008C485E
:109700000268032161F303020260036803F00F03A0
:10971000032BFAD1854C4FF4803104F13400FEF76D
:10972000D5FF4FF4803113E08149804C0A686068AE
:10973000120940EA02120A6060680A6802F00F0229
:109740008242FAD1A16804F13400FEF7BFFFA1689C
:1097500004F14000BDE81040FEF7B8BF744802684D
:10976000012161F303020260036803F00F03012B80
:10977000FAD16E4C4FF4803104F13400FEF7A6FFAD
:109780004FF4803104F14000FEF7A0FF01204FF4B8
:1097900080316060A16010BD654801680909090158
:1097A0000160026812F00F0FFBD1604C002104F140
:1097B0003400FEF78BFF002104F14000FEF786FF26
:1097C00000206060A06010BD59480268032161F369
:1097D00003020260036803F00F03032BFAD1032096
:1097E0005249486010BD000030B581B00E20FDF731
:1097F000ADF94A4CD4F8100410F00C0F44D1206895
:109800000004FCD5494D297802200129D4F8F4132D
:1098100011D141F48011C4F8F413D4F8101460F39A
:109820000101C4F8101400BFD4F8100400F00C00BB
:109830000828F9D11EE021F48011C4F8F413D4F8FB
:10984000101460F30101C4F8101400BFD4F8100420
:1098500000F00C000828F9D10320FFF747FF287813
:10986000032808BFFFF731FDD4F8F40520F01000FD
:10987000C4F8F405FEF744F8D4F8440420F01000CE
:10988000C4F84404FFF7C2FA01B00E20BDE830402E
:10989000FDF75DB9254810B501781C4C032911D19D
:1098A0000420FFF723FFE06940F00300E061E06976
:1098B00000F00C000C28FAD1FFF7A8FABDE8104020
:1098C00002F052B8206820F080702060216D21F0F5
:1098D0004001216510BD154928B1012281F83020D1
:1098E0000221012004E0002281F830200121012022
:1098F0002EE60E4800B5017B81B0012904BF0C3073
:10990000FFF7F6FC01B05DF804EBBBE5000C024686
:109910001C0C0246000E0246280C02460C080246A9
:109920000048E80101127A00FCF8FFFFD84100204E
:10993000002002402DE9F04F4FF0000C5B4A5C4BD9
:10994000DFF870814FF00F0906460F46A0E00124B2
:1099500004FA0CF414EA010056D04FEA4C01032536
:109960008D406FEA050E7D6805F0030ABAF1010F1C
:109970001CBF05F00305022D13D1B568D7F80CA064
:109980000EEA05050AFA01FA4AEA0505B5607568A6
:1099900025EA04047D68C5F3001505FA0CF52C438F
:1099A00074603C7904F00304032C20D0F468BD6893
:1099B0000EEA04048D402C43F4603C7904F0030467
:1099C000022C14D14FEADC0406EB8404D4F820A066
:1099D0004FEA8C0505F01C0509FA05FB2AEA0B0A7B
:1099E000D7F810B00BFA05F545EA0A052562346888
:1099F0000EEA04053C7904F0030404FA01F129435A
:109A00003160796811F4403F40D04FEA9C01DFF8A3
:109A1000A8A058F821E04FEACC040AEA962A04F0FC
:109A2000180409FA04F52EEA05050AFA04F444EAD2
:109A3000050E48F821E0D3F800E07C68C14301EA54
:109A40000E0EE50248BF40EA0E0EC3F800E0D3F860
:109A500004E07C6801EA0E0EA50248BF40EA0E0E43
:109A6000C3F804E0D2F804E07C6801EA0E0EA50316
:109A700048BF40EA0E0EC2F804E0D2F800E07C686D
:109A800001EA0E01E40348BF014311600CF1010C2F
:109A9000396831FA0CF07FF45AAFBDE8F08F0069F5
:109AA000084018BF0120C0B2704700008020024665
:109AB00000200246602002467F7F2F0027480021B9
:109AC00001604160704710B500F00FF81C6800F0AD
:109AD00011F81C6006E010B500F007F85C6800F0B3
:109AE00009F85C6082F3108810BDEFF3108272B643
:109AF0001A4B704719B1012902D1044370478443BE
:109B00007047EFF3108172B6144A106808B1002054
:109B100004E05068002814BF0120022081F310885F
:109B2000704738B5EFF3108472B60C4908680C4DD5
:109B300020B1296888476A6890470AE0486820B1E0
:109B4000A8688047E968884703E028698047696911
:109B5000884784F3108831BD00000000189300206E
:109B60005062000880B5144801F002FF032818BFB6
:109B7000002801D1002002BD022002BD38B500201E
:109B8000ADF80000EFF31184102282F312880A4D21
:109B90000121284601F008FF6946284601F028FF08
:109BA0000021284601F000FFBDF8000001F09AFFF7
:109BB00084F3118831BD0000B83F0020F8B5044699
:109BC000DFF87C6330780122012808BF0C2201D025
:109BD0000CB9022288E0206820B110F0030F01D1F7
:109BE00067680FB903227FE0A368E56813B10DB978
:109BF000042279E003EB430C4FF0000E07E06745C9
:109C000003D201E00029FAD104220EF1010E9E4593
:109C10000AD2012A08D1281D50F83E1015F83E003E
:109C20008C440028EED1EFE7012A5DD1002030629C
:109C30007062B062F062306370637060B060F06058
:109C400030617061B061F061301DFDF749FE7268EE
:109C5000002A1CBFB068002801D0F06808B90522AE
:109C600042E061687162206830629047A068B16824
:109C700000EB40008847706318B9A06808B106225D
:109C800032E006F1100001F032FF06F1180001F099
:109C90002EFFA068B16A0022306300EB400040183C
:109CA000B0620C211AE0E56801FB02F0736B15F855
:109CB00032701F54E56803442F1D57F832C0002549
:109CC000521CC3F801C0736B0344C3F80550736B97
:109CD0000344D3F80100F36AC018F062306B82428B
:109CE000E1D30121317000221046F2BD2DE9FE4F73
:109CF000934C25784FF0000B0DB90D208AE00F0032
:109D000008BF0A20FAD0791C914627F07F450091C0
:109D10009846020021D1EFF3108672B6626AA06AFB
:109D2000E16A121A521A974211D20098A168884724
:109D300048B140F8045BC9F80000A16A00207F1810
:109D40007F1CA76206E000F067F80B2002E000F03D
:109D500063F80A2086F310885CE0EFF31083019328
:109D600072B60646CDF808900920D94608E000F002
:109D700053F80A2002E000F04FF80B2009F1010926
:109D8000216B894543D2092841D10C2101FB09FAF5
:109D9000616B11F80A309E42F0D1481D50440268B0
:109DA0005144D1F801309A4205D2D1F80120D0F8BF
:109DB00000B0A2EB0B0B606AA16AE26A401A801A3B
:109DC00058448742D3D20098A16888470028D2D04F
:109DD00045EA066140F8041B029A1060606B411D61
:109DE00001EB0A000168C919491C0160606B421C43
:109DF00052F80A10431D53F80A00814205D2A06AA6
:109E00003818A0EB0B00401CA0620020B6E70199B7
:109E100081F31088BDE8FE8F404689E02DE9FC41C2
:109E2000474D297811B94FF00D0869E010B94FF08E
:109E3000020865E010F0030118BF4FF007085FD17A
:109E4000296A6B6A01EB830484422CBF88424FF07D
:109E5000080855D3EFF3108672B650F8047CE96811
:109E6000001F3C0E27F07F477F1C88473CB9A86A3B
:109E70004FF00008C71BAF620020009036E04FF0A3
:109E80000908002001E0C91B1CE0296B8842F3D2BD
:109E9000B8F1090FF0D10C2141436A6B535C9C422D
:109EA00018D10A44D2F80510D2F80130CB1A002B91
:109EB00009DDA96ABB42E6D2D2F80530D2F801C06A
:109EC000C91A6144A962D2F805104FF00008C91BF5
:109ED000C2F80510401CD8E7694605F1100001F0F2
:109EE00032FE009905F1180001F017FE05F110008F
:109EF00001F000FE0028EFD086F31088FDF7F7FC94
:109F00004046BDE8F6811CB50D4C01E081688847EC
:109F10000020009004F1180001F0ECFD20B9694622
:109F200004F1180001F00FFE00980028EED113BDD7
:109F300001001CBF034801F0F0BD704700000000A5
:109F4000808E0020908E00202DE9F843654CA56995
:109F5000654E4FF0FF372840A0612169E2696069D2
:109F6000236A4FF001083CE0491C54F831301A4292
:109F7000FAD054F8312004EBC109D9F8041010408C
:109F80000CEA0000014208BFC9F80470D9F80410B7
:109F9000084000F0ABF8D9F8042008FA00F18A4331
:109FA000C9F804206062EFF3108172B608FA00F27B
:109FB0002069D24310402061022004EBC00353F813
:109FC00008CC401E02EA0C0C43F808CCF5D181F312
:109FD0001088606A56F8201088472169E269606934
:109FE000236AD4F818C0014011EA0C0F05D01A42B8
:109FF00003D1002100EA0C02B7E76762206A02423F
:10A0000013D1FDF73FFCEFF3108672B62269E169C8
:10A010006069A36902401A4202BF206A0142FDF74B
:10A0200028FC86F31088FDF740FCA561BDE8F183AC
:10A0300038B5144600F006F82B4941F8204085F366
:10A04000108831BDEFF3108572B64FE030B5EFF3F5
:10A05000108272B6234B1C6904431C6153F83150C3
:10A06000284343F8310082F3108830BD506181F3FA
:10A0700010887047EFF3108172B61A4AD3691843FB
:10A08000D061F4E7EFF3108172B6164AD36923EA80
:10A090000000D061EBE72DE9F041124C666A0546FD
:10A0A000374616F1010F0EBF0026012000FA06F612
:10A0B000D4F82080256203E02946304601F05AFD9D
:10A0C000E0692842F8D06762EFF3108072B6E16968
:10A0D00021EA0505E56180F31088C4F82080BDE819
:10A0E000F08100006442002028880020B0FA80F04F
:10A0F000C0F11F00C0B2704710B5EFF3108272B606
:10A10000012303FA00F02B4B21B1012906D1196874
:10A11000084302E01C6824EA0000186082F31088FB
:10A1200010BD0A46234938B50B6801249D0704D5A4
:10A130000B685D0701D5012032BD0B68DD07FCD43B
:10A140000146012001F026FD00B90024204632BD61
:10A150007FB5194B198801244FF6FF72914217BF42
:10A16000002980218902490B814206D311490D68DB
:10A17000AE0704D50D686E0701D5012017E00D6804
:10A18000EE07FCD4022101911988914218BF0029E1
:10A190000FBF7F218902490B491E0840029003949A
:10A1A000694601A801F094FD00B90024204604B0DE
:10A1B00070BD0000AC930020A007F90B4BA22DE965
:10A1C000F84792E8C8008FB005460CA880E8C800A0
:10A1D0000FF2301248A092E8C80090E8000706A8E5
:10A1E0000DF1240C80E8C80000248CE800073D48ED
:10A1F0003DB9026842F004020260006800F0040009
:10A2000006E0026842F002020260006800F002000C
:10A2100000900098344E36F8150001220392022374
:10A22000019004930A0008D1029406F10C0252F83E
:10A23000250001A9FFF77EFB31E001292FD14FF462
:10A240000410029006F10C0050F8250001A96FF0EF
:10A250000308FFF76FFB0C20684309A951F825108C
:10A26000371807F1180001F0A0FDB8B906A850F89A
:10A270002520022107F1180001F088FD70B90CA813
:10A2800050F8251006F1080358570022FDF7C3FFC8
:10A2900006F108004057FDF7E5FF00E04446204680
:10A2A00010B0BDE8F08780B50F4A32F8101002EB0D
:10A2B0008002D068FFF7F3FB401E8041C00F02BD53
:10A2C0000C214843084A111801F1180001F073BD30
:10A2D0000020FDF71CBB0120FDF719BB0220FDF794
:10A2E00016BB00008C0C0246984200200F000000B4
:10A2F0000F0000000F0000000D0000060600000621
:10A3000007000006D1A20008D7A20008DDA20008BD
:10A310002DE9FE4FDFF8E87939790025002601297B
:10A3200008BF032002D0009008B90620B8E010F062
:10A330000F0F18BF0720F9D1DFF8C80900884FF6C2
:10A34000FF72904208D0010006D08002410B022922
:10A3500009D300F1006001E04FF00160009901F5C0
:10A360008041884201D208209AE0DFF89C0901F080
:10A3700049FD00281CBF03280C20F5D1EFF3108005
:10A38000029072B600990FF2B530386101F1784150
:10A390000191282107F11800FCF708FFDFF86C890C
:10A3A00098F8010098F8002003465343022A00D38E
:10A3B00001D90D2071E008B1022B01D90E206CE00B
:10A3C00007F11800C8F80400A9461FE0143013E094
:10A3D00000F068F80028FBD0D8F80C0050B198F8CD
:10A3E00000301421D8F804204B43D118A1F11404F3
:10A3F000A042EBD1D8F80400C8F8080098F8010092
:10A400006D1CADB206EB403609F1010998F8001059
:10A410005FFA89F088423DD21420009C68433419C9
:10A42000002107EB000ACAF81840DDF804B0204606
:10A4300000F01BFBB3440028CAD0204600F05EFBAE
:10A4400020B900F02FF80028FBD0C5E7D8F80C4061
:10A4500024B90AF11800C8F80C00BDE720460168CD
:10A46000DAF8182052784978914204D2521AFF2A19
:10A4700018BF0AF11800C8F80C00A042E1D020680B
:10A4800098F8011000F17840400B00F0A0FB002884
:10A49000F5D0A1E7012038710020029981F31088DE
:10A4A000BDE8FE8F98F801104FEA5B308FE3F0B5FE
:10A4B0009500DFF84C780F353B792D09860810247C
:10A4C0002D010BB90220F0BD7B79012B01D10420B5
:10A4D000F0BD08B10F20F0BD09B91120F0BD11F099
:10A4E000030001D01220F0BD32B3DFF8203803EBB7
:10A4F0008613186A00281CBF986A002807D0186BBA
:10A5000000281CBF986B002801D00920F0BD002650
:10A5100003EBC607386A58B1786A80000F3000092B
:10A5200005EB00155878400305F11007B84203D336
:10A53000761C042EECD301E01320F0BDEFF3108560
:10A5400072B619625A62002103EBC102106A58B157
:10A550009868066800EB8100A6194660526A92006E
:10A560000F32120904EB0214491C0429ECD385F3C1
:10A5700010880020F0BD2DE9F041DFF884472179F3
:10A58000820800F0030309B9022041E06179012942
:10A5900008BF04203CD008B10F2039E0DFF86C0779
:10A5A00000EB821505EBC306306A08B910202FE0D6
:10A5B000E86808B90A202BE0EFF3108772B6012093
:10A5C0006071D5F80C801146D8F8000000F04DFA03
:10A5D00020B1D8F8000000F091FA08B90B2013E080
:10A5E000E9680A681079002802BF706AB2F805109D
:10A5F00088420FD11021E868726A0368306A9200BD
:10A60000C918FCF77BFD00200021617187F31088D9
:10A61000BDE8F081D079002802BF706A11898842B4
:10A6200007D1B2F8051089000F310909090110316D
:10A63000E1E7907A002802BF706AB2F80B108842F6
:10A6400002D100F014F8F2E7507B002802BF706AD4
:10A65000D189884209D100F00AF8B2F80B008000D5
:10A660000F30000901EB0011E1E71420CCE710895D
:10A67000B2F8051080000F3089000F310009090978
:10A68000000100EB011170472DE9F041DFF8706621
:10A690003279840800F003050AB902204CE008B1C1
:10A6A0000F2049E0DFF8640600EB841707EBC503D1
:10A6B000186A08B910203FE0EFF3108272B6736990
:10A6C000012000FA04F848EA03037361BB78A8404C
:10A6D0001843B87007EB8500016182F31088707928
:10A6E00048BB00F0B6F90121717180F31088204653
:10A6F00000F07EFA022800F0ACF913D17269002153
:10A70000717122EA08027261B9700022CBB2491C51
:10A7100007EB8304CDB22261042DF7D380F31088B8
:10A72000152009E0002134707570B170BA781201FB
:10A73000BA7080F310880020BDE8F0812DE9F04167
:10A74000DFF8BC65B1780124DFF8C055032948D88B
:10A75000DFE811F004004C00ED00320196F80080B3
:10A76000DFF8AC75002805EB88139968096831D1CA
:10A7700057F8202051F820309A4203D1401C042879
:10A78000F6D310E000F069F94FEA88106B1C195CF1
:10A7900008352B5806F10802186800F17840400B84
:10A7A00001F088FB1CE000F054F90022B470B27193
:10A7B00080F3108870784FEA88116A180835695854
:10A7C00002EBC0077A6A0D1D55F82010386A06F1B1
:10A7D000080303E006F108030422384601F030FBC9
:10A7E000022840F034810121404622E1002840F057
:10A7F0008D8000F050FAB2797378D8B2032834BF54
:10A800005B1C002330785FFA83FC521C05EB801739
:10A8100007EBCC07386A10B9D0B20428EDD37370B7
:10A82000B27181F310883778B179B80104290FD259
:10A8300061462A180835285802EBC10CDCF82420A0
:10A84000001D50F82110DCF8200006F108036BE031
:10A8500005F108010858006800F050F958B900F0F7
:10A86000FCF83778691C05F10803B801095C185831
:10A8700006F1080243E000F00EFA307805EB801292
:10A88000D3683364906892F800C05768D060142091
:10A8900000FB0CFC936807EB0C00143883420EBFDE
:10A8A0009760143393600023D76807F1040C5CF8B9
:10A8B000230080B13846976800F1040807F1040CC2
:10A8C000D7F800E058F8237000683F1A27F0030714
:10A8D000BE444CF823E05B1C042BE5D381F31088C5
:10A8E000306C80B100F0B5F80221B17080F31088AF
:10A8F0003778681C06F10802B901415C306C0068C9
:10A9000000F178408EE03078002115E037787178DA
:10A9100006F1080305EB871000EBC10580686A6A41
:10A92000001D50F82110286A01F08AFA7DE037787E
:10A9300000283AD10021384600F0B1F93278A91C3C
:10A940009201885C48B900F084F83278716904FAA1
:10A9500002F29143716180F310887069002820D061
:10A96000002120FA01F2D20704D4491CCBB2202BDB
:10A97000F7D336E000F06DF80022B270AB1C0F0682
:10A98000BF0CDF5D04FA02FE17EA0E0F04D1521C61
:10A99000D7B2042FF3D300E07270317080F31088C7
:10A9A0001FE000F0B9F971712FE005EB871106F196
:10A9B0000802306C497832E0002829D100F0ACF967
:10A9C000B170AA1C33789B01D75C04FA01F31F42D3
:10A9D00004D1491CCBB2042BF4D300E0717080F396
:10A9E0001088307800F004F9022802D10121307873
:10A9F0001FE000F02EF83178AA1CAB1C8901525CD4
:10AA000042EA021202F0F0025A5480F310881EE06B
:10AA1000377806F1080205EB8710417880680068F6
:10AA2000A0F50050400B01F045FA02280FD101219A
:10AA3000384600F034F900F02EF9307872690023BE
:10AA4000844022EA04047461737181F31088BDE8C4
:10AA5000F081EFF3108072B67047EFF3108072B69A
:10AA60000321B17080F310887047F0B5037800229D
:10AA7000FF2B04BF4378FF2B1DD144884FF6FF7393
:10AA80009C4204BF0579FF2D15D1B0F805409C42CA
:10AA900004BFC579FF2D0ED104899C4204BF857A7D
:10AAA000FF2D08D1B0F80B409C4201BF457BFF2D24
:10AAB000C4899C421FD0954B03EB8116B0F805501A
:10AAC0000389B0F80B4077785D19C3896519FF02D7
:10AAD0005D19AF420FD3037989008B4202BFC4795D
:10AAE0004B1C9C4207D1847A8B1C9C4201BF407B4B
:10AAF000C91C884201221046F0BD00002DE9FC4728
:10AB000004460025009504F1100A00260027DFF80E
:10AB1000F881B4F80520002A3CD06B4651464046E7
:10AB200001F0E6FA30B9B4F80560B6000F36360920
:10AB300036012FE00228ECD0FCF782FCE9E702287E
:10AB400018BFFCF77DFC2289002A23D000F03AF8D8
:10AB50000028F4D1208918E0022818BFFCF770FC07
:10AB6000B4F80B20B2B100F02DF80028F4D1B4F8FD
:10AB70000B000AE0022818BFFCF762FCE2894AB128
:10AB800000F020F80028F5D1E08980000F3000099E
:10AB900006EB00167F1C06EB0A09042F0AD2032FCE
:10ABA000FBD8DFE807F006050403F6E7E6E7D7E79A
:10ABB000C9E7AEE700986188884208BF01252846AA
:10ABC000BDE8F6876B464946404601F0C7BAF8B57E
:10ABD00005460C4600264CB1671E04E07819FFF7C5
:10ABE000B7FA18B97F1CA742F8D301263046F2BD48
:10ABF0002DE9FC4104460020454D002100220023A0
:10AC00000090804685E80F00404800EB84163E4FD8
:10AC100006E001F06DFA88B1022818BFFCF710FCBD
:10AC200006EBC801086A48B100984A6A6B460028DA
:10AC3000096A3846EDD001F091FAECE708F1010815
:10AC4000B8F1040FECD300F026F8F06818B10068F2
:10AC50004278521C6A700098A2002A716880706A5B
:10AC6000A400621CA5F80500EA71F06AA21CAA7291
:10AC70002881706BE41C6C73A5F80B00F06BE88105
:10AC800081F31088B068234B04220168284601F044
:10AC9000D7F8BDE8F681EFF3108172B670472DE961
:10ACA000F8430E461949002701EB80184FF00109BF
:10ACB0001FE03C1D09FA04F4204218D009FA07F1FC
:10ACC000084214D108EB8705296931B1304688471D
:10ACD00000F022F8296180F31088FFF7BAFE98F897
:10ACE000021021EA040488F8024080F310887F1CD7
:10ACF000FFB298F8020008B1042FDAD3BDE8F1835F
:10AD0000088D0020A007F90BA0400020244200205D
:10AD100070920020108D0020EFF3108072B6002199
:10AD2000704748F64C50C2F2000090F83900704766
:10AD30002DE9F841DFF838888DB008F1280000F0DF
:10AD4000D6FE0FF2C56200211020FFF771F90FF255
:10AD5000696200210420DFF81C78FFF769F907F524
:10AD60001D54FC220021204601F036FA4FF4FC72FB
:10AD700021460020FFF79BFB0020FFF7FCFB002093
:10AD8000009000230022FF2101F0D0FA10F1030F00
:10AD90001CBF032001F04AFB44203882082179823D
:10ADA0004FF4A860B8821E21F975FB2078834021FA
:10ADB000B977F820B8832021F9770220B8756F2180
:10ADC000398307F15C00386007F5AF51B9604FF483
:10ADD0008B5041F28452F86000217A6039847962A4
:10ADE000384601F067FBDFF89047002840F0B68155
:10ADF0000021069107910FF2CC720121342001F05D
:10AE000086FB00200090062101A8FCF7CFF907F18E
:10AE100028050020A861A883062201A907F14000A7
:10AE200001F036FC48BBDFF85407016811F1010F4F
:10AE30000CD042682976090A6976120A4068EA76D7
:10AE4000110A120CA87629776A7716E06946002065
:10AE5000FEF750F8A0B90098017A00982976417A57
:10AE600000986976817A0098A976C17A0098E97687
:10AE7000017B00982977417B697707F1400601E063
