:020000040800F2
:10000000101000201D0A0008090B00080B0B000847
:100010000D0B00080F0B0008110B0008310B000836
:10002000000000000000000000000000130B0008AA
:10003000150B000800000000170B0008190B000842
:10004000350B0008390B00083D0B0008410B000878
:10005000450B0008490B00084D0B0008510B000828
:10006000550B00081D0B0008590B00085D0B00081C
:10007000610B0008650B0008690B00086D0B000898
:10008000710B0008750B0008790B00087D0B000848
:10009000810B0008850B0008890B00088D0B0008F8
:1000A000910B0008950B0008990B00089D0B0008A8
:1000B000A10B0008A50B0008A90B0008AD0B000858
:1000C000B10B0008B50B0008B90B0008BD0B000808
:1000D000C10B0008C50B0008C90B0008CD0B0008B8
:1000E000D10B0008D50B0008D90B0008DD0B000868
:1000F000E10B0008E50B0008E90B0008ED0B000818
:10010000F10B0008F50B0008F90B0008FD0B0008C7
:10011000010C0008050C0008090C00080D0C000873
:10012000110C0008150C0008190C00081D0C000823
:10013000210C0008250C0008290C00082D0C0008D3
:10014000310C0008350C0008390C00083D0C000883
:10015000410C0008450C0008490C00084D0C000833
:100160002DE9F84300F0A4F9C04C20684FF0005589
:1001700040F004002060216801F004010091009823
:1001800000F09EF800F0E2F8206EC10003D4206E6B
:10019000810140F1858028784FF6FF74B44F002824
:1001A00064D1032000F0DFF800285FD038886E7833
:1001B000A0421DBF00288102490B80218E4201D23E
:1001C000032E09DAA04214BF0028402603D0C60837
:1001D000B61F7608F61C6E70F0B200F0C4F8002866
:1001E0005BD036060320F60A00F0EBF806F1006655
:1001F00006F5B0700068DFF87C829F4D00094FEA79
:10020000001928E0286942F2FA0140F040402861D4
:10021000296000F094F932464146012000F062F96D
:100220000028F8D100F09BF9D8E90023D6E90001B5
:100230008B4208BF8242E5D108F10800D0E90023D3
:1002400006F1080EDEE900018B4208BF8242D9D1D7
:1002500008F110081036C145D4D2032000F083F80D
:10026000D8B13888A04218BF00280CE0287818B907
:10027000032000F078F8E0B12878012810D1388800
:10028000A04218BF002804D0C008801F4008C01C2E
:1002900000E04020C0B200F094F800F087F80EE0D3
:1002A000032000F060F820B10020287000F07EF8F4
:1002B00005E001210320FF2229706870AA70FEE783
:1002C00080B56E480268012161F303020260016893
:1002D00001F00F010129FAD16948016821F4803148
:1002E00001606848026842F4807202600168490552
:1002F000FCD50269102161F314420261C1698908C9
:100300008900C161C16911F00C0FFBD1016AC908F4
:10031000C90001625C490A6822F010020A60016AA1
:1003200021F070010162026A042161F30A22026273
:10033000416A21F070014162544800F08BF90E20AF
:1003400000F08EF908B172B6FEE701BD81B05048E9
:10035000016841F001010160006800F001000090B7
:10036000009801B070474B4A02EB403203281168F5
:100370001CBFC01E01EB40313D4800884FF6FF73A3
:10038000984201D0020001D1434A02E0434A02EB05
:100390008022B1F1006F28BF8A4203D30868404928
:1003A000884201D0002070470120704780B5314855
:1003B0003C490860026882F308884068804730BF83
:1003C00001BD38B584B02A4A11884FF6FF739942AF
:1003D00014BF00293D2403D08C02640BA41F6408C1
:1003E00005466419641E994214BF00293D2103D0BB
:1003F0008902490B891F4908032810DA00204FF0B1
:1004000000510870BFF34F8F27490A68274802F44C
:10041000E06202430A60BFF34F8F00BFFDE7481957
:10042000401E84423CBF611B491C0224019403917D
:100430001088984218BF00280FBF7F208002400B11
:10044000401E054002950C48016942F2FA0241F053
:1004500040410161026000F072F8694601A800F0B5
:1004600049F900F07CF805B030BD0000940C02465C
:10047000A007F90B00600008202002400020024085
:100480000C080246000C0246000E02460024F4004E
:100490008C0C024660010008FCFF0F08FCFFFF0700
:1004A000298A449408ED00E00CED00E00400FA0510
:1004B00080B50B48016841F480710160032000F0B1
:1004C00077F900F0FFF9042000F0C4F90E2000F0E5
:1004D000C7F808B1012002BD00F068FA002002BD93
:1004E00000200240F8B50446424D28780E461746D3
:1004F000012801D10220F2BD01202870002169608D
:1005000000F01AF8010014D124F000400128AC607A
:100510003946304602D100F053F801E000F057F8B8
:1005200000F00AF834490A6824F0004422EA04047E
:100530000C6000212970F2BD4FF47A701AE0304946
:100540000A6A0020002A00D4704710B52D4A0A60BC
:100550002D4C0C60096A002948BF012010BD2649B6
:100560000A68012042F000420A600968002948BF79
:100570000020704770B5054600F024FA2E181F4C75
:10058000206810F4403F08D015F1010FF8D000F0BA
:1005900019FAB042F4D3032070BD206842F2FA0188
:1005A000084006D013494A6802434A60206001208F
:1005B00070BD2068C10744BF01202060002070BDCD
:1005C00010B50D4A136800F021F8042207E010B5B9
:1005D000094A136843F4804300F018F8202251F8C8
:1005E000044B521E40F8044BF9D183F3108810BD20
:1005F000000000002010002028200240202002409F
:100600000820024023016745AB89EFCD43F0010389
:100610001360EFF3108372B6704730B501688468D9
:100620004218416802EB5103C90703D54C4401E06D
:10063000491C08D19A4218BF12F9011B01D10C3094
:1006400030BD12F8015B002904F8015BF0D4491EAB
:10065000F7D5EFE701490860704700001C10002043
:10066000F8B504461F4D2878002100282ED01E4AD8
:1006700012681E4B1E68770702D54FF47A710DE0A1
:100680001B4B1B6813F4400306D0B3F5800F08D052
:10069000B3F5000F0ED015E04FF4FA51B1FBF0F0B6
:1006A0000EE04FF47A72B2FBF0F24FF4FA43B3FB70
:1006B000F2F107E04FF47A71B1FBF0F04FF4004231
:1006C000B2FBF0F1084600F0B2F808B10120F2BD2B
:1006D000002221464FF0FF3000F077F8AC60002098
:1006E000F2BD00BF101000201C10002010E000E040
:1006F000E00C02462DE9F0410446DFF8A8603078AE
:100700008846012808BF022038D00120307000211F
:10071000716000F035F801002ED12168DFF8887093
:10072000B160226822F00042042A08D1386840F4FF
:10073000803040F00400386000F022F814E04FF000
:10074000FF31C8F80010656800E06D1C6168A268A0
:1007500051188D4208D2284600F016F800F010F823
:100760000100F2D0C8F800503968226822F0004237
:1007700042F47E729143396000213170BDE8F0810E
:100780004FF47A70FFF7F6BE074A136807490B402B
:1007900043EAC00343F4803343F00203136070471D
:1007A00000000000201000202820024005FCFEFF71
:1007B0003A4B19684FF6FF020002114000F4E06066
:1007C0000843374908431860704770B5334B1C68BD
:1007D000C4F302230124C3F10705052D2EBF0F2505
:1007E00004FA05F56D1E1E1D072E34BF0023DB1E07
:1007F0002940994004FA03F35B1E1A401143090192
:10080000020002D42748815470BD274B02F00F022A
:100810001A4402F8041C70BD010007D4012200F044
:100820001F018A40214B400943F820207047401E99
:10083000B0F1807F07D21E49486000228A600B68B1
:1008400043F003030B60B0F1807F8041C043C00FD1
:10085000704700001749164A04281ED8DFE800F048
:100860000811141D0300106840F004001060704768
:10087000136823F004031360086820F44000086044
:1008800070471368012001E01368022023F004037D
:1008900013600A6860F397520A6070470CED00E03D
:1008A0000000FA0500E400E018ED00E000E100E0DF
:1008B00010E000E0E00C02463548016841F47001A8
:1008C0000160704730B53349CB693348334A03F090
:1008D0000C03082B02D00C2B07D04BE010460A6803
:1008E000120D02F00102D04044E08B6A4C6BC3F35E
:1008F00002256D1C00EE105AC4F30805C4F306640B
:10090000641C6D1C01EE104A00EE905ADC0607D5FF
:100910008C6BC4F3CC0401EE904AFBEEE91A01E0C3
:10092000DFED1A1A03F00303022B02D0032B03D0CE
:100930000AE002EE100A09E00868000D00F001006C
:10094000C24002EE102A01E09FED102AB8EE422AC2
:10095000B8EE400AF8EE600A82EE000A70EEA10AD4
:1009600020EE200AF8EE410A80EE200ABCEEC00A12
:1009700010EE100A0A4A1060096A00BF09A301F0CC
:100980000701595CC840106030BD00000000000045
:1009900088ED00E0000C02460024F4000048E80165
:1009A0001C100020000000000102030480B500229A
:1009B00001210920FFF709FF0920BDE80240FFF7E8
:1009C0002BBF000001484068704700BF1010002096
:1009D00081B00F48016841F004010160026802F033
:1009E0000402009200990B490A6842F080020A60F2
:1009F000094A136843F480431360896B490704D59F
:100A0000006E10B972B6012000E0002001B07047FE
:100A1000940C02460008024600200240DFF818D07D
:100A2000FFF7D6FF01283FF4C1AC0448D0F800D04E
:100A300003488047034800472000002000000008CA
:100A4000B9080008ED0A000810B5074979441831C3
:100A5000064C7C44163404E00A68081D114488479B
:100A60000146A142F8D110BD2C0000003800000062
:100A70004EF68851CEF20001086840F4700008601C
:100A8000BFF34F8FBFF36F8F4FF00170E1EE100A8D
:100A90007047000087FBFFFFB80100001A0000004C
:100AA0001010002000F00DF8002801D0FFF7CCFF57
:100AB000AFF300800020AFF30080FFF751FB00F0A0
:100AC00002F80120704700F001B8000007463846E0
:100AD00000F002F8FBE7000080B5AFF30080024AA7
:100AE00011001820ABBEFBE72600020005480146B6
:100AF00003B4684680F30988AFF30080FFF7B8FFBE
:100B0000FFF7D0FFA5EDF5FEFEE7FEE7FEE7FEE707
:100B1000FEE770477047704700F002B8704700006A
:100B200002494A68087882184A607047101000200D
:100B3000FFF7FEBFFFF7FEBFFFF7FEBFFFF7FEBFE9
:100B4000FFF7FEBFFFF7FEBFFFF7FEBFFFF7FEBFD9
:100B5000FFF7FEBFFFF7FEBFFFF7FEBFFFF7FEBFC9
:100B6000FFF7FEBFFFF7FEBFFFF7FEBFFFF7FEBFB9
:100B7000FFF7FEBFFFF7FEBFFFF7FEBFFFF7FEBFA9
:100B8000FFF7FEBFFFF7FEBFFFF7FEBFFFF7FEBF99
:100B9000FFF7FEBFFFF7FEBFFFF7FEBFFFF7FEBF89
:100BA000FFF7FEBFFFF7FEBFFFF7FEBFFFF7FEBF79
:100BB000FFF7FEBFFFF7FEBFFFF7FEBFFFF7FEBF69
:100BC000FFF7FEBFFFF7FEBFFFF7FEBFFFF7FEBF59
:100BD000FFF7FEBFFFF7FEBFFFF7FEBFFFF7FEBF49
:100BE000FFF7FEBFFFF7FEBFFFF7FEBFFFF7FEBF39
:100BF000FFF7FEBFFFF7FEBFFFF7FEBFFFF7FEBF29
:100C0000FFF7FEBFFFF7FEBFFFF7FEBFFFF7FEBF18
:100C1000FFF7FEBFFFF7FEBFFFF7FEBFFFF7FEBF08
:100C2000FFF7FEBFFFF7FEBFFFF7FEBFFFF7FEBFF8
:100C3000FFF7FEBFFFF7FEBFFFF7FEBFFFF7FEBFE8
:100C4000FFF7FEBFFFF7FEBFFFF7FEBFFFF7FEBFD8
:0D0C50000001F9000010FC000124F4E70091
:1060000020100020E1710208A1700208A3700208AC
:10601000A5700208A7700208A97002087F0703088C
:10602000000000000000000000000000AB7002084B
:10603000AD70020800000000AF700208B1700208E5
:106040008307030887070308B57002088B07030856
:106050008F07030893070308970703089B070308A4
:106060009F070308BB700208A3070308A7070308DC
:10607000AB070308AF070308B3070308B707030814
:10608000BB0703087171020877710208BF07030894
:10609000C3070308C7070308CB070308CF07030894
:1060A0007D710208D3070308D7070308DB0703083D
:1060B000DF070308DB700208E1700208E30703084A
:1060C000E7070308EB070308EF070308F3070308D4
:1060D000F7070308FB070308FF0703080308030883
:1060E000070803080B0803080F0803081308030830
:1060F000170803081B080308E77002081F080308B5
:1061000023080308270803082B0803082F0803089F
:1061100033080308370803083B0803083F0803084F
:1061200043080308470803084B0803084F080308FF
:106130005308030811710208570803085B08030895
:106140005F08030863080308ED7002086708030886
:106150006B0803086F08030873080308770803082F
:10616000EC470308536572766963657320616E645A
:1061700020436861726163746572697374696373E3
:10618000206372656174696F6E0A0000456E642059
:106190006F6620536572766963657320616E642053
:1061A00043686172616374657269737469637320B3
:1061B0006372656174696F6E0A0000002020466199
:1061C000696C2020203A206163695F68616C5F73AD
:1061D00065745F726164696F5F6163746976697425
:1061E000795F6D61736B20636F6D6D616E642C20E0
:1061F000726573756C743A2030782532580A000045
:106200002020537563636573733A206163695F6827
:10621000616C5F7365745F726164696F5F61637401
:1062200069766974795F6D61736B20636F6D6D6101
:106230006E640A0D0000000020204661696C202079
:10624000203A206163695F68616C5F777269746589
:106250005F636F6E6669675F6461746120636F6D11
:106260006D616E64202D20434F4E4649475F444187
:1062700054415F4741505F4144445F5245435F4E44
:1062800042525F4F46465345542C20726573756CDD
:10629000743A203078253032580A00002020537597
:1062A00063636573733A206163695F68616C5F77EC
:1062B000726974655F636F6E6669675F646174615C
:1062C00020636F6D6D616E64202D20434F4E4649F3
:1062D000475F444154415F4741505F4144445F52EE
:1062E00045435F4E42525F4F46465345540A0000B5
:1062F0003D3D3E3E20537461727420426C655F48A0
:1063000063695F4761705F476174745F496E697468
:106310002066756E6374696F6E0A00002020466106
:10632000696C2020203A206163695F68616C5F7747
:10633000726974655F636F6E6669675F64617461DB
:1063400020636F6D6D616E64202D20434F4E464972
:10635000475F444154415F505542414444525F4F6E
:1063600046465345542C20726573756C743A203040
:1063700078253032580A0000202053756363657316
:10638000733A206163695F68616C5F7772697465F5
:106390005F636F6E6669675F6461746120636F6DD0
:1063A0006D616E64202D20434F4E4649475F444146
:1063B00054415F505542414444525F4F4646534515
:1063C000540A000020205075626C696320426C758D
:1063D00065746F6F746820416464726573733A20EA
:1063E000253032783A253032783A253032783A25DD
:1063F0003032783A253032783A253032780A000047
:1064000020204661696C2020203A206163695F6822
:10641000616C5F77726974655F636F6E6669675FF1
:106420006461746120636F6D6D616E64202D204323
:106430004F4E4649475F444154415F49525F4F4682
:10644000465345542C20726573756C743A2030782D
:10645000253032580A0000002020537563636573AD
:10646000733A206163695F68616C5F777269746514
:106470005F636F6E6669675F6461746120636F6DEF
:106480006D616E64202D20434F4E4649475F444165
:1064900054415F49525F4F46465345540A0000003D
:1064A00020204661696C2020203A206163695F6882
:1064B000616C5F77726974655F636F6E6669675F51
:1064C0006461746120636F6D6D616E64202D204383
:1064D0004F4E4649475F444154415F45525F4F46E6
:1064E000465345542C20726573756C743A2030788D
:1064F000253032580A00000020205375636365730D
:10650000733A206163695F68616C5F777269746573
:106510005F636F6E6669675F6461746120636F6D4E
:106520006D616E64202D20434F4E4649475F4441C4
:1065300054415F45525F4F46465345540A000000A0
:1065400020204661696C2020203A206163695F68E1
:10655000616C5F7365745F74785F706F7765725F8D
:106560006C6576656C20636F6D6D616E642C207256
:106570006573756C743A203078253032580A000003
:106580002020537563636573733A206163695F68A4
:10659000616C5F7365745F74785F706F7765725F4D
:1065A0006C6576656C20636F6D6D616E640A0000CA
:1065B00020204661696C2020203A206163695F6772
:1065C0006174745F696E697420636F6D6D616E6470
:1065D0002C20726573756C743A20307825303258EF
:1065E0000A0000002020537563636573733A2061CD
:1065F00063695F676174745F696E697420636F6D4E
:106600006D616E640A00000020204661696C2020E4
:10661000203A206163695F6761705F696E69742009
:10662000636F6D6D616E642C20726573756C743A66
:10663000203078253032580A0000000020205375A1
:1066400063636573733A206163695F6761705F6953
:106650006E697420636F6D6D616E640A00000000E6
:1066600020204661696C2020203A206163695F67C1
:106670006174745F7570646174655F636861725F93
:1066800076616C7565202D20446576696365204EC2
:10669000616D652C20726573756C743A20307825B5
:1066A0003032580A00000000202053756363657380
:1066B000733A206163695F676174745F75706461C8
:1066C00074655F636861725F76616C7565202D200B
:1066D000446576696365204E616D650A00000000BF
:1066E00020204661696C2020203A206163695F6741
:1066F0006174745F7570646174655F636861725F13
:1067000076616C7565202D20417070656172616ED7
:1067100063652C20726573756C743A20307825306F
:1067200032580A002020537563636573733A206101
:1067300063695F676174745F7570646174655F63DA
:106740006861725F76616C7565202D20417070659F
:106750006172616E63650A0020204661696C2020C9
:10676000203A206863695F6C655F7365745F646578
:106770006661756C745F70687920636F6D6D616EB2
:10678000642C20726573756C743A20307825303231
:10679000580A00002020537563636573733A2068BC
:1067A00063695F6C655F7365745F64656661756C72
:1067B000745F70687920636F6D6D616E640A0000AC
:1067C00020204661696C2020203A206163695F6760
:1067D00061705F7365745F696F5F63617061626947
:1067E0006C69747920636F6D6D616E642C207265C5
:1067F00073756C743A203078253032580A000000E6
:106800002020537563636573733A206163695F6722
:1068100061705F7365745F696F5F63617061626906
:106820006C69747920636F6D6D616E640A0000009D
:1068300020204661696C2020203A206163695F67EF
:1068400061705F7365745F61757468656E746963A8
:106850006174696F6E5F726571756972656D656E81
:106860007420636F6D6D616E642C20726573756C3E
:10687000743A203078253032580A000020205375B1
:1068800063636573733A206163695F6761705F7307
:1068900065745F61757468656E7469636174696F4E
:1068A0006E5F726571756972656D656E7420636F78
:1068B0006D6D616E640A000020204661696C2020C5
:1068C000203A206163695F6761705F636F6E66691C
:1068D000677572655F77686974656C697374206346
:1068E0006F6D6D616E642C20726573756C743A20E7
:1068F0003078253032580A00202053756363657361
:10690000733A206163695F6761705F636F6E666988
:10691000677572655F77686974656C697374206305
:106920006F6D6D616E640A0020204661696C2020E5
:10693000203A206163695F676174745F6164645FBA
:106940006368617220636F6D6D616E64203A2044EC
:10695000657669636520496E666F20436861722CB5
:10696000206572726F7220636F64653A20307825FB
:1069700032580A002020537563636573733A2061AF
:1069800063695F676174745F6164645F63686172A7
:1069900020636F6D6D616E64203A20446576696393
:1069A0006520496E666F20436861720A000000002E
:1069B0002D2D2D2D2D2D2D2D2D2D2D2D2D2D2D2D07
:1069C0002D2D2D2D2D2D2D2D2D2D2D2D2D2D2D2DF7
:1069D0002D2D2D2D2D2D2D2D2D2D2D2D2D0A000064
:1069E0002D2D2044455649434520494E464F2043CE
:1069F000484152203A204465766963652049442025
:106A00003D2030782530325820253032580A000099
:106A10002D2D2044455649434520494E464F20439D
:106A2000484152203A205265766973696F6E204959
:106A300044203D2030782530325820253032580A05
:106A4000000000002D2D2044455649434520494E65
:106A5000464F2043484152203A20426F61726420E1
:106A60004944203D203078253032580A000000008B
:106A70002D2D2044455649434520494E464F20433D
:106A8000484152203A204857205061636B61676546
:106A9000203D203078253032580A00002D2D20442A
:106AA000455649434520494E464F204348415220D0
:106AB0003A2046572056657273696F6E203D2076E6
:106AC00025642E25642E2564202D206272616E635C
:106AD00068202564202D206275696C642025640A75
:106AE000000000002D2D2044455649434520494EC5
:106AF000464F2043484152203A204170706C6963F0
:106B00006174696F6E204944203D20307825303211
:106B1000580A00002D2D2044455649434520494E32
:106B2000464F2043484152203A20486F7374205307
:106B30007461636B2076657273696F6E203D2030DF
:106B400078253032580A00002D2D204445564943FF
:106B50004520494E464F2043484152203A20486F35
:106B6000737420537461636B2054797065203D20E9
:106B70003078253032580A0020204661696C202088
:106B8000203A206163695F676174745F7570646146
:106B900074655F636861725F76616C7565204445FA
:106BA00056494E464F20636F6D6D616E642C2065B3
:106BB00072726F7220636F64653A203078253258A4
:106BC0000A0000002020537563636573733A2061E7
:106BD00063695F676174745F7570646174655F6336
:106BE0006861725F76616C756520444556494E4612
:106BF0004F20636F6D6D616E640A00003D3D3E3E47
:106C000020456E6420426C655F4863695F47617030
:106C10005F476174745F496E69742066756E637452
:106C2000696F6E0A000000003E3E3D3D204843492A
:106C30005F444953434F4E4E454354494F4E5F4383
:106C40004F4D504C4554455F4556545F434F444566
:106C50000A00000020202020202D20436F6E6E654A
:106C60006374696F6E2048616E646C653A20202001
:106C70003078253032580A20202020202D205265DF
:106C800061736F6E3A202020203078253032580A08
:106C9000000000003E3E3D3D204843495F4C455FBB
:106CA000434F4E4E454354494F4E5F555044415417
:106CB000455F434F4D504C4554455F5355424556F3
:106CC000545F434F44450A0020202020202D2043BC
:106CD0006F6E6E656374696F6E20496E746572764F
:106CE000616C3A20202025642E25303264206D739B
:106CF0000A20202020202D20436F6E6E656374696A
:106D00006F6E206C6174656E63793A2020202025B7
:106D1000640A20202020202D20537570657276692A
:106D200073696F6E2054696D656F75743A20202009
:106D30002564206D730A00003E3E3D3D20484349D6
:106D40005F4C455F454E48414E4345445F434F4E7F
:106D50004E454354494F4E5F434F4D504C4554456B
:106D60005F5355424556545F434F4445202D2043C1
:106D70006F6E6E656374696F6E2068616E646C65BA
:106D80003A203078253034580A0000002020202096
:106D9000202D20436F6E6E656374696F6E2065737E
:106DA0007461626C697368656420776974682040F7
:106DB0003A253032783A253032783A253032783AEE
:106DC000253032783A253032783A253032780A0048
:106DD0003E3E3D3D204843495F4C455F434F4E4E4C
:106DE000454354494F4E5F434F4D504C4554455FCA
:106DF0005355424556545F434F4445202D20436F21
:106E00006E6E656374696F6E2068616E646C653A5E
:106E1000203078253034580A000000003E3E3D3DC9
:106E2000204143495F4741505F50524F435F434FBA
:106E30004D504C4554455F56534556545F434F445F
:106E4000450A00003E3E3D3D204143495F474150D9
:106E50005F4B455950524553535F4E4F5449464935
:106E6000434154494F4E5F56534556545F434F4438
:106E7000450A00003E3E3D3D204143495F474150A9
:106E80005F504153535F4B45595F5245515F5653D5
:106E90004556545F434F44450A0000003D3D3E3E89
:106EA000206163695F6761705F706173735F6B65B9
:106EB000795F72657370203A204661696C2C20728C
:106EC0006561736F6E3A203078253032580A0000C1
:106ED0003D3D3E3E206163695F6761705F70617335
:106EE000735F6B65795F72657370203A20537563C9
:106EF000636573730A0000003E3E3D3D20414349F7
:106F00005F4741505F4E554D455249435F434F4D9A
:106F100050415249534F4E5F56414C55455F565371
:106F20004556545F434F44450A0000003D3D3E3EF8
:106F3000206163695F6761705F6E756D657269631B
:106F40005F636F6D70617269736F6E5F76616C7590
:106F5000655F636F6E6669726D5F7965736E6F20D2
:106F60003A204661696C2C20726561736F6E3A201D
:106F70003078253032580A003D3D3E3E206163693D
:106F80005F6761705F6E756D657269635F636F6D7A
:106F900070617269736F6E5F76616C75655F636F48
:106FA0006E6669726D5F7965736E6F203A205375F6
:106FB00063636573730A00003E3E3D3D20414349D3
:106FC0005F4741505F50414952494E475F434F4DE3
:106FD000504C4554455F56534556545F434F4445C6
:106FE0000A00000020202020202D205061697269B5
:106FF0006E67204B4F0A20202020202D20537461E3
:107000007475733A203078253032580A20202020B9
:10701000202D20526561736F6E3A20307825303212
:10702000580A00003D3D3E3E206163695F67617024
:107030005F616C6C6F775F7265626F6E64203A207F
:107040004661696C2C20726561736F6E3A203078EE
:10705000253032580A0000003D3D3E3E2061636904
:107060005F6761705F616C6C6F775F7265626F6E96
:1070700064203A20537563636573730A000000004F
:107080003D3D3E3E206163695F6761705F7365747B
:107090005F646973636F76657261626C65202D2031
:1070A0006661696C2C20726573756C743A20307857
:1070B000253032580A0000003D3D3E3E20616369A4
:1070C0005F6761705F7365745F646973636F766532
:1070D0007261626C65202D20537563636573730A5A
:1070E000000000003D3D3E3E2064656C65746520F7
:1070F000747820706F776572206C6576656C202DD2
:10710000206661696C2C20726573756C743A20304E
:1071100078253032580A00003D3D3E3E20537461D0
:107120007274204164766572746973696E67204673
:1071300061696C65642C20726573756C743A2030DB
:1071400078253032580A00003D3D3E3E205375639D
:10715000636573733A205374617274204164766579
:1071600072746973696E670A000000006163695F89
:107170006761705F7365745F6E6F6E5F6469736380
:107180006F76657261626C65202D206661696C2C7A
:1071900020726573756C743A203078253032580A45
:1071A000000000003D3D3E3E206163695F67617005
:1071B0005F7365745F6E6F6E5F646973636F76652E
:1071C0007261626C65202D20537563636573730A69
:1071D000000000006163695F6761705F75706461E2
:1071E00074655F6164765F64617461202D206661FF
:1071F000696C2C20726573756C743A203078253078
:1072000032580A003D3D3E3E206163695F67617010
:107210005F7570646174655F6164765F64617461F9
:10722000202D20537563636573730A006163695F82
:107230006C326361705F636F6E6E656374696F6EED
:107240005F706172616D657465725F7570646174A1
:10725000655F726571202D206661696C2C207265F6
:1072600073756C743A203078253032580A0000006B
:107270003D3D3E3E206163695F6C326361705F63D8
:107280006F6E6E656374696F6E5F706172616D655C
:107290007465725F7570646174655F726571202DCD
:1072A00020537563636573730A0000003D3D3E3EE5
:1072B000206163695F6761705F636C6561725F73B2
:1072C000656375726974795F6462202D2046616917
:1072D0006C2C20726573756C743A203078253032CE
:1072E000580A00003D3D3E3E206163695F67617062
:1072F0005F636C6561725F73656375726974795FF2
:107300006462202D20537563636573730A00000067
:107310000D0A464D5F5772697465202D20446573D0
:1073200074696E6174696F6E2061646472657373F1
:10733000206E6F742070617274206F6620746865AF
:1073400020666C61736800000D0A464D5F577269D4
:107350007465202D20536F75726365206F722064F1
:10736000657374696E6174696F6E206164647265BF
:107370007373206E6F742070726F7065726C7920F9
:10738000616C69676E6564000D0A464D5F577269EE
:107390007465202D2052657475726E656420766167
:1073A0006C7565203A202564000000000D0A464DEA
:1073B0005F4572617365202D20496E636F6E73693E
:1073C0007374656E74207265717565737400000066
:1073D0000D0A464D5F4572617365202D205265741C
:1073E00075726E65642076616C7565203A2025643F
:1073F000000000000D0A464D5F4261636B67726FCB
:10740000756E6450726F63657373202D20436173D2
:107410006520464D5F424B474E445F4E4F57494EA5
:10742000444F575F464C4153484F50000D0A464D5C
:107430005F4261636B67726F756E6450726F6365F4
:107440007373202D204361736520464D5F424B4787
:107450004E445F4E4F57494E444F575F464C415341
:10746000484F50202D205772697465206F706572E7
:107470006174696F6E0000000D0A464D5F426163E2
:107480006B67726F756E6450726F63657373202DD6
:10749000204361736520464D5F424B474E445F4E2B
:1074A0004F57494E444F575F464C4153484F502029
:1074B0002D204572617365206F7065726174696F0C
:1074C0006E0000000D0A464D5F4261636B67726F8C
:1074D000756E6450726F63657373202D2043617302
:1074E0006520464D5F424B474E445F57494E444FDF
:1074F0005745445F464C4153484F50000D0A464D96
:107500005F4261636B67726F756E6450726F636523
:107510007373202D204361736520464D5F424B47B6
:107520004E445F57494E444F5745445F464C415384
:10753000484F50202D204E6F2074696D652077696B
:107540006E646F77206772616E746564207965740C
:107550002C2072657175657374206F6E6500000074
:107560000D0A464D5F4261636B67726F756E6450C2
:10757000726F63657373202D204361736520464DE0
:107580005F424B474E445F57494E444F5745445F17
:10759000464C4153484F50202D2054696D6520774B
:1075A000696E646F77206772616E746564000000B5
:1075B0000D0A464D5F4261636B67726F756E645072
:1075C000726F63657373202D204361736520464D90
:1075D0005F424B474E445F57494E444F5745445FC7
:1075E000464C4153484F50202D20577269746520F6
:1075F0006F7065726174696F6E0000000D0A464D10
:107600005F4261636B67726F756E6450726F636522
:107610007373202D204361736520464D5F424B47B5
:107620004E445F57494E444F5745445F464C415383
:10763000484F50202D204572617365206F70657230
:107640006174696F6E0000000D0A464D5F42616310
:107650006B67726F756E6450726F63657373202D04
:1076600020466C617368206F7065726174696F6E1B
:10767000206E6F7420636F6D706C65746520796522
:10768000742C20726571756573742061206E657746
:107690002074696D652077696E646F770000000063
:1076A0003D3D3E3E204143492047415454205772BE
:1076B00069746520726573706F6E736520466169C9
:1076C0006C6564202C20726573756C743A20256497
:1076D000200A0D003D3D3E3E204143492047415494
:1076E0005420436F6E6669726D6174696F6E2069B4
:1076F0006E6469636174696F6E204661696C65646C
:10770000202C20726573756C743A202564200A0D54
:107710000000000020204661696C2020203A206192
:1077200063695F676174745F6164645F73657276D7
:1077300069636520636F6D6D616E643A204F5441DB
:107740002C206572726F7220636F64653A20307806
:107750002578200A0D0000002020537563636573AF
:10776000733A206163695F676174745F6164645F29
:107770007365727669636520636F6D6D616E643ADF
:10778000204F5441200A0D0020204661696C2020C2
:10779000203A206163695F676174745F6164645F4C
:1077A0006368617220636F6D6D616E642020203AA2
:1077B00020424153455F4144522C206572726F72E2
:1077C00020636F64653A2030782532580A00000043
:1077D0002020537563636573733A206163695F6743
:1077E0006174745F6164645F6368617220636F6D6C
:1077F0006D616E642020203A20424153455F414430
:10780000520A000020204661696C2020203A206145
:1078100063695F676174745F6164645F6368617208
:1078200020636F6D6D616E642020203A20434F4EBF
:10783000462C206572726F7220636F64653A203047
:10784000782532580A000000202053756363657361
:10785000733A206163695F676174745F6164645F38
:107860006368617220636F6D6D616E642020203AE1
:1078700020434F4E460A000020204661696C2020BC
:10788000203A206163695F676174745F6164645F5B
:107890006368617220636F6D6D616E642020203AB1
:1078A000205241575F444154412C206572726F72DF
:1078B00020636F64653A2030782532580A00000052
:1078C0002020537563636573733A206163695F6752
:1078D0006174745F6164645F6368617220636F6D7B
:1078E0006D616E642020203A205241575F4441541C
:1078F000410A000020204661696C2020203A206166
:1079000063695F676174745F7570646174655F63F8
:107910006861725F76616C756520424153455F41D5
:10792000445220636F6D6D616E642C206572726FBE
:107930007220636F64653A2030782532580A00005F
:107940002020537563636573733A206163695F67D1
:107950006174745F7570646174655F636861725FA0
:1079600076616C756520424153455F414452206306
:107970006F6D6D616E640A0020204661696C202085
:10798000203A206163695F676174745F7570646138
:1079900074655F636861725F76616C756520434FE3
:1079A0004E4620636F6D6D616E642C206572726F40
:1079B0007220636F64653A2030782532580A0000DF
:1079C0002020537563636573733A206163695F6751
:1079D0006174745F7570646174655F636861725F20
:1079E00076616C756520434F4E4620636F6D6D6107
:1079F0006E640A0020204661696C2020203A2061D4
:107A000063695F676174745F7570646174655F63F7
:107A10006861725F76616C7565205241575F4441C1
:107A2000544120636F6D6D616E642C206572726FBE
:107A30007220636F64653A2030782532580A00005E
:107A40002020537563636573733A206163695F67D0
:107A50006174745F7570646174655F636861725F9F
:107A600076616C7565205241575F444154412063F3
:107A70006F6D6D616E640A004F54415F434F4E4617
:107A80005F4556543A205265626F6F74206F6E20C6
:107A90006E6577206170706C69636174696F6E0ADE
:107AA000000000004F54415F555345525F434F4E15
:107AB000465F55504C4F41443A20464D5F577269DE
:107AC000746553746174757320213D20464D5F4F7A
:107AD0005045524154494F4E5F434F4D504C4554D1
:107AE00045203D3E20464D5F4552524F520A000010
:107AF0004F54415F555345525F434F4E465F55507B
:107B00004C4F41443A204E6F742072656164792075
:107B1000746F20726563656976652066696C652C93
:107B2000206F76657273697A65640A004F54415F0D
:107B3000555345525F434F4E465F55504C4F41445D
:107B40003A20466972737420313238206269747346
:107B500020616C69676E656420616464726573732B
:107B600020746F20646F776E6C6F61642073686F30
:107B7000756C642062653A20307825780A00000030
:107B80004F54415F4150504C49434154494F4E5F1F
:107B900055504C4F41443A20464D5F5772697465C9
:107BA00053746174757320213D20464D5F4F5045DD
:107BB000524154494F4E5F434F4D504C4554452020
:107BC0003D3E20464D5F4552524F520A0000000094
:107BD0004F54415F4150504C49434154494F4E5FCF
:107BE00055504C4F41443A20464D5F4552524F52FA
:107BF0000A0000004F54415F4150504C49434154EA
:107C0000494F4E5F55504C4F41443A2054727920B1
:107C1000746F20464D5F4572617365204E756D62CD
:107C20006572206F6620736563746F72733A2025E6
:107C3000642066726F6D20736563746F72202564B3
:107C4000200A00004F54415F4150504C4943415479
:107C5000494F4E5F55504C4F41443A204E6F74206F
:107C6000726561647920746F2072656365697665F9
:107C70002066696C652C206F76657273697A65641D
:107C80000A0000004F54415F4150504C4943415459
:107C9000494F4E5F55504C4F41443A2046697273EC
:107CA0007420313238206269747320616C69676EA8
:107CB0006564206164647265737320746F20646FFF
:107CC000776E6C6F61642073686F756C6420626599
:107CD0003A20307825780A004F54415F5241575F6F
:107CE000444154415F49443A20464D5F577269749C
:107CF0006553746174757320213D20464D5F4F506C
:107D000045524154494F4E5F434F4D504C455445A9
:107D1000203D3E20464D5F4552524F520A00000022
:107D20002D2D2047415454203A204C454420434FA8
:107D30004E46494755524154494F4E2052454345BE
:107D4000495645440A00000020204661696C202005
:107D5000203A206163695F676174745F636F6E6668
:107D600069726D5F696E6469636174696F6E2063C7
:107D70006F6D6D616E642C20726573756C743A2042
:107D800030782578200A00002020537563636573DE
:107D9000733A206163695F676174745F636F6E66D5
:107DA00069726D5F696E6469636174696F6E206387
:107DB0006F6D6D616E640A0020204661696C202041
:107DC000203A206163695F676174745F6164645F16
:107DD0007365727669636520636F6D6D616E643A79
:107DE000205032505F5365727665722C2065727236
:107DF0006F7220636F64653A2030782578200A0D11
:107E0000000000002020537563636573733A20619E
:107E100063695F676174745F6164645F73657276E0
:107E200069636520636F6D6D616E643A20503250F6
:107E30005F536572766572200A0D0000202046614E
:107E4000696C2020203A206163695F676174745F08
:107E50006164645F6368617220636F6D6D616E64FD
:107E60002020203A204C45445F432C206572726FDD
:107E70007220636F64653A2030782532580A00001A
:107E80002020537563636573733A206163695F678C
:107E90006174745F6164645F6368617220636F6DB5
:107EA0006D616E642020203A204C45445F430A00F7
:107EB00020204661696C2020203A206163695F6759
:107EC0006174745F6164645F6368617220636F6D85
:107ED0006D616E642020203A205357495443485F17
:107EE000432C206572726F7220636F64653A203094
:107EF000782532580A0000002020537563636573AB
:107F0000733A206163695F676174745F6164645F81
:107F10006368617220636F6D6D616E642020203A2A
:107F2000205357495443485F430A000020204661CC
:107F3000696C2020203A206163695F676174745F17
:107F40007570646174655F636861725F76616C759A
:107F500065204C45445F4320636F6D6D616E642CFA
:107F6000206572726F7220636F64653A20307825E5
:107F700032580A002020537563636573733A206199
:107F800063695F676174745F7570646174655F6372
:107F90006861725F76616C7565204C45445F432073
:107FA000636F6D6D616E640A000000002020466101
:107FB000696C2020203A206163695F676174745F97
:107FC0007570646174655F636861725F76616C751A
:107FD00065205357495443485F4320636F6D6D617B
:107FE0006E642C206572726F7220636F64653A2034
:107FF00030782532580A000020205375636365737A
:10800000733A206163695F676174745F757064615E
:1080100074655F636861725F76616C756520535744
:10802000495443485F4320636F6D6D616E640A007D
:108030002D2D20503250204150504C49434154493D
:108040004F4E20534552564552203A204C4544311C
:10805000204F4E0A000000002D2D205032502041AC
:1080600050504C49434154494F4E20534552564578
:1080700052203A204C454431204F46460A00000029
:108080002D2D20503250204150504C4943415449ED
:108090004F4E20534552564552203A204E4F544998
:1080A0004649434154494F4E20454E41424C454478
:1080B0000A0000002D2D20503250204150504C49D4
:1080C000434154494F4E20534552564552203A2081
:1080D0004E4F54494649434154494F4E2044495319
:1080E00041424C45440A00002D2D20503250204181
:1080F00050504C49434154494F4E205345525645E8
:1081000052203A20494E464F524D20434C49454E4D
:108110005420425554544F4E203120505553484519
:10812000440A00002D2D20503250204150504C491F
:10813000434154494F4E20534552564552203A2010
:1081400043414E275420494E464F524D20434C49FF
:10815000454E54202D204E4F5449464943415449E1
:108160004F4E2044495341424C45440A0000000010
:10817000020201EC020301ED020401EE020501EF2F
:10818000020601F0020701F1020801F2020901F3FF
:10819000020A01F4020B01F5020C01F6020D01F7CF
:1081A000020E01F8000F01F9001001FA001101FBA5
:1081B000001201FC001301FD021401FE001501FF75
:1081C0000216010000170101001801020218010344
:1081D0000019010402190105031901060519010717
:1081E00006190108081901090D19010A020201EC1A
:1081F000020301ED000501EE000601EF000701F0AA
:10820000000801F1000901F2000A01F3000B01F47A
:10821000000C01F5000D01F6000E01F7000F01F84A
:10822000001001F9001101FA001201FB001301FC1A
:10823000021401FD021501FE001701FF02170100E3
:1082400000180101001901020219010370810008E0
:108250001F700000EC810008182000010D0A534E29
:10826000564D415F496E6974202D20436F727275BF
:10827000707465642062616E6B73206572617365F2
:1082800073205B49734865616465724F6B5D0000E4
:108290000D0A534E564D415F496E6974202D20439F
:1082A0006F727275707465642062616E6B732065A5
:1082B0007261736573205B49734372634F6B5D003A
:1082C0000D0A534E564D415F5772697465202D203B
:1082D000496D706163746564204E564D203A2025C7
:1082E000640000000D0A534E564D415F5772697489
:1082F00065202D2050656E64696E67206275666624
:108300006572203A202564000D0A534E564D415F98
:108310005772697465202D20466C617368206F70F8
:1083200065726174696F6E20737461727465642024
:10833000284865616465722077726974652072658A
:10834000717565737429203A202564000D0A534E17
:10835000564D415F466C6173684D616E6167657231
:1083600043616C6C6261636B202D20466C617368A5
:10837000206F7065726174696F6E207374617465CB
:10838000203A20534E564D415F4845414445525F87
:1083900057524954450000000D0A534E564D415F57
:1083A000466C6173684D616E6167657243616C6CA8
:1083B0006261636B202D20466C617368206F70656D
:1083C000726174696F6E207374617465203A205312
:1083D0004E564D415F52455452595F57524954458C
:1083E000202D205265747279207772697465206F30
:1083F0007065726174696F6E000000000D0A534E63
:10840000564D415F466C6173684D616E6167657280
:1084100043616C6C6261636B202D20466C617368F4
:10842000206F7065726174696F6E2073746174651A
:10843000203A20534E564D415F4255464645525FC5
:1084400057524954450000000D0A534E564D415FA6
:10845000466C6173684D616E6167657243616C6CF7
:108460006261636B202D20466C617368206F7065BC
:10847000726174696F6E207374617465203A205361
:108480004E564D415F4255464645525F57524954FC
:1084900045202D20537461727420746865207065C6
:1084A0006E64696E67207772697465206F7065729B
:1084B0006174696F6E0000000D0A534E564D415FA6
:1084C000466C6173684D616E6167657243616C6C87
:1084D0006261636B202D20466C617368206F70654C
:1084E000726174696F6E207374617465203A2053F1
:1084F0004E564D415F4255464645525F575249548C
:1085000045202D2052657472792077726974652038
:108510006F7065726174696F6E0000000D0A534ED2
:10852000564D415F466C6173684D616E616765725F
:1085300043616C6C6261636B202D20466C617368D3
:10854000206F7065726174696F6E207374617465F9
:10855000203A20534E564D415F45524153455F42AC
:10856000414E4B000D0A534E564D415F466C6173B0
:10857000684D616E6167657243616C6C6261636BCB
:10858000202D20466C617368206F7065726174697C
:108590006F6E207374617465203A20534E564D41BE
:1085A0005F45524153455F42414E4B202D2053744D
:1085B000617274207468652070656E64696E6720EE
:1085C0007772697465206F7065726174696F6E008F
:1085D0000D0A534E564D415F466C6173684D616E96
:1085E0006167657243616C6C6261636B202D20462C
:1085F0006C617368206F7065726174696F6E20734F
:1086000074617465203A20534E564D415F52455473
:1086100052595F5752495445000000000D0A534E0D
:10862000564D415F466C6173684D616E616765725E
:1086300043616C6C6261636B202D20466C617368D2
:10864000206F7065726174696F6E207374617465F8
:10865000203A20534E564D415F52455452595F5770
:1086600052495445202D20526574727920657261FB
:108670007365206F7065726174696F6E0000000031
:108680000D0A456E64206F662043524320636F6D70
:108690007075746174696F6E2C2076616C756520DD
:1086A0003A202564000000000D0A534E564D41202B
:1086B0002D20496E766F6B65427566666572436103
:1086C0006C6C6261636B20666F72204E564D204960
:1086D00044203A2025640A0000000000010203043F
:1086E00099FC000800000000D5FC00081FFD0008F0
:1086F00035FD000845FD00084BFD00085DFD000844
:1087000075FD000879FD000887FD00086972020800
:1087100083720208297302084F73020888ED00E093
:1087200010E000E014E000E018E000E008ED00E0F8
:10873000050000001C000000FFFFFFFF000000001C
:108740002000000000FFFFFF0800000020000000E4
:10875000FF0000000000000024000000FFFF0000F8
:1087600000000000BD1A3CCDA6B8995899B740EB5F
:108770007B60FF4A503F10D2E3B3C974385FC5A392
:10878000D4F6493F512563FCC2CAB9F3849E17A7AA
:10879000ADFAE6BCFFFFFFFFFFFFFFFF0000000098
:1087A000FFFFFFFFE69D350E480103CCDBFDF4AC77
:1087B0001191F4EFB9A5F9E9A7832C5E2CBE97F2CD
:1087C000D203B0208BD28915D08E1C742430ED8F4B
:1087D000C24563765C15525ABF9A32636DEB2A65C7
:1087E000499C80DC932B0308932B0308932B0308ED
:1087F000932B03089936030899360308A53203081A
:1088000091EB020891EB0208673203086732030814
:10881000673203086732030800000000A53203082E
:108820000000000000000000000000000000000048
:108830000000000000000000000000000000000038
:1088400000000000040000000C0000000100000017
:10885000000000000C0000004000000006000000C6
:10886000000000001E00000028000000460000007C
:108870005A000000640000006E0000007E0000004E
:10888000D11B0308F32203081F1C0308871F0308DA
:1088900037240308F9210308AD1E0308C124030887
:1088A00005E502082D2503081F2603081D1E0308E1
:1088B00075220308F31E030869210308711C0308CD
:1088C000C31C0308871B0308F1200308C91D030804
:1088D0004B23030861E40208111D0308050400008E
:1088E000A57E0208080400007D0B03080C080000A8
:1088F0008D0F030810010000870C030813FD000012
:10890000518002081A010000790B030830030000AF
:108910005F0C030857020000750B030801130000E9
:10892000430D030802FE00008D0C0308030A00003B
:10893000C30D0308040C0000730F0308050D0000AD
:10894000190F0308060B0000890F0308070B00002E
:10895000FB0D03080A1F00007D0E03080BF2000048
:108960003B0E03080C060000550F0308140400001A
:10897000310D030804E007020293100F0295C802AC
:10898000020A08050298028902980000020A000003
:108990000295E01E0288390002DB1F000297F000FA
:1089A00002E807000297F1500297F0000295C0001C
:1089B0000297500002E80000029740000288310050
:1089C00002DB00000295C21E0298804B0298000054
:1089D000027201000298804B029800000295C000CC
:1089E00002720000029314000295D002020A061ED1
:1089F00002974186029740000222020002736D0036
:108A0000029712140297100002736C0002220000F9
:108A1000020A00000295C0001293100014E0010A3F
:108A20000400000002FF02000220DE000221D0004C
:108A30000222B9000209CF00020AB500020C0A00A6
:108A4000020DCF00020EB500023C0B00023D0F00EC
:108A5000023E1F000224DE000225D0000226B900DB
:108A600002040A000205CF000206B50002400B0016
:108A700002411B0002421F000227F8000228DE000C
:108A80000229CF00022AB900020F0A000210DC00FE
:108A90000211C7000212B1000243090002440B0098
:108AA00002450F0002461F000247090002480B0062
:108AB00002490F00024A1F00021A0500024E200060
:108AC00002FF010002AFE50002B0E50002B1E500DF
:108AD00002B2E4000256070002FF000002680C0028
:108AE00002DC04000284DD000258050002B1B80077
:108AF000026E0C0002094600024A040002E903006B
:108B00000227230002F74000128C0600E800000054
:108B1000028D0000028E000002CD000002EC020077
:108B200002FF0200026290000265C1000266890035
:108B3000026789000268EE000269F200026A8000A2
:108B4000026B3600026CA100026DC200026ED700FB
:108B5000026F00000270B5000273C00002747C0056
:108B60000275870002764E000277F6000278F60062
:108B700002793900027A4700027BC000027C86003D
:108B800002FF000002750C0002FF010002BE00009F
:108B900002C0000002C2000002C4000002C70100BF
:108BA00002C9030002CB060002CD0E0002CF1B005B
:108BB00002D12F0002D34B0002D56D0002D79100E5
:108BC00002D9B20002DBCE0002DDE30002DFF000DA
:108BD00002E1F70002E3FB0002E5FC0002FF0000F7
:108BE0000281300002820200128B0400DC000000CF
:108BF00002FF0200027D0000027EB5000281C0007B
:108C000002827C000283870002844E000285F60007
:108C10000286F60002873900028847000289C000F8
:108C2000028A860002FF000012FCBC003C0000002B
:108C3000A800000004E0070004E0050014E00100C3
:108C40000C00000004E0050104E0070314E0030049
:108C50000C00000004E0050104E0070314E0030039
:108C60000C00000003001A000300010003010100D2
:108C70000302010013030100100000003808000087
:108C8000F8030000030000003808000000FC0100A9
:108C90000A000000380800000000FE00110000007B
:108CA000380800000000007F1800000040080000A5
:108CB0007F000000000000004008000000007F006E
:108CC000100000003C080000F80300000300000052
:108CD000280000003C0000005C00000004000000D0
:108CE000E800000002930000021100001237C000EB
:108CF0000C00000002930000129600000800000023
:108D000014000000200000002000000024000000EB
:108D100002FF00000293100F021101001237D00071
:108D200010000000200000002000000020000000D3
:108D30002800000028000000280000002800000093
:108D400013F20200040000000800000013FA010002
:108D500004E0000A14E0010A0C0000000800000012
:108D60000F3C0308A19D02087B1B0308EDE30208EA
:108D7000E91403089B2603083D830208019B0208AF
:108D800059060308172E01080F34010805060308C9
:108D90008D410308FD9E0208C5E2020845A00208B5
:108DA00021040308BD060308E9FE0208D9130308DD
:108DB000C50F030802C900001225000008000000CA
:108DC000080000000265150F04000000C268920848
:108DD00041EA8201C16070478068000F07E0826845
:108DE00077490A4042F0010282607047806800F0D3
:108DF000010070477CB500210091002000F0EAF8E6
:108E000000F066F880BB6F4801686D4E41F02001AC
:108E10000160006800F0200000900098A9683140CF
:108E200041F08051A9602846FFF7D6FF0028FAD00C
:108E3000E868002100F0030000902846FFF7C6FF15
:108E4000A868064046F00046AE60A868C00FFCD196
:108E500000992846FFF7BAFF004600462846FFF76C
:108E6000BEFF2868C007FCD584F310880020BDE849
:108E7000764000F0B0B838B5012000F0ABF800F053
:108E800027F8F0B1A9684E48014041F00201A960FD
:108E9000012129602846FFF7A9FF0128FAD0A86818
:108EA0000009C007FBD4A96847480140A9602846CB
:108EB000FFF792FF0128FAD04248016821F0200113
:108EC000016084F310880120BDE8324000F083B8CF
:108ED000EFF3108472B63D4D284687E770B504461F
:108EE0003B4D286E20B1284600F08AF9060018D1C3
:108EF000542204F10801281D00F042FB284600F02E
:108F00007BF8060009D104F15C01284600F0E1F984
:108F1000060002D12068286703E05421281D00F0D4
:108F200085FB304670BD38B505460021274CADF8AD
:108F300000102046FFF75AFF012821D1A0688007C2
:108F40001ED4A06840071BD4A1681D48014041F011
:108F50000401A16020684007FCD504212160E86875
:108F600030B104280FD0082815D00C281CD023E0DD
:108F70004FF48051ADF80010206CC0F30B0019E0E5
:108F800000F0D0FCE6E74FF48060ADF80000216C03
:108F9000C1F3090105E04FF48071ADF80010216CB8
:108FA000C9B2ADF8001007E04021ADF80010206C08
:108FB00000F03F00ADF80000BDF8000032BD000039
:108FC000E8FFFF7F940C0246E8FFFF6F00100246A7
:108FD000F84D0020704770477047704770472E006B
:108FE00010B5436901F0040107248C40A34302FA41
:108FF00001F11943416110BD2DE9F8434FF000081C
:10900000040047462DD004F15C06706828B920465C
:1090100000F0A7FC0020B060307020684FF4805949
:109020008068C0001FD42168DFF8A404C1F8009054
:1090300021688A68024042F080528A6000F016FE81
:10904000054620680068C1040DD400F00FFE401BE7
:109050000228F6D320680068C104F2D4706800F0DA
:10906000C7F80120C2E021688868C00009D472688E
:109070004FF0010842F010027260B06840F0010049
:10908000B06088687268D30600D4400700F1A780FA
:10909000726804F1280522F4807242F002027260C4
:1090A0008868DFF89824C0071ED4CB68A06823F036
:1090B0000C030343CB60287FEF6A012807D1286A9D
:1090C000696A0743A86A0F43074347F0010720680E
:1090D0000169114039430161DFF864046168036884
:1090E000890C61F395430360286908B94FF00009C2
:1090F0002369002B4CBF23F000434FF4001394F876
:109100002000217E4FEA403C4CEA813149EA0109C6
:10911000E16841EA090119432B7B41EA43092978B7
:10912000012905D110B949F4803901E000F0C3F8F4
:10913000686830B100F4E07040EA0901A86840EACC
:1091400001092168DFF8FC03CB68034049EA030307
:10915000CB60206801690A401743076121684A6CA7
:10916000E369607E9208034343EA82024A646A69C3
:1091700020680021FFF734FFAA692068DFF8C813D0
:10918000FFF72EFF206928B92068816A61F00F017E
:1091900081620FE0B0F5001F0CD121686FF00F0263
:1091A000886A636A581E800000F01F008240F068E1
:1091B00002438A622168DFF89403CA6802404A4584
:1091C00007D10021B1607168012060F30101716075
:1091D0000BE0706820F0020000F00AF803E070680D
:1091E00040F0100070604FF001084046BDE8F28387
:1091F00040F010007060B06840F00100B06070474F
:1092000070B5040001D1012070BD04F15C056868EF
:1092100040F002006860204600F033F906000CD1EF
:10922000204600F057F9060004BF0120686021685D
:10923000DFF81C038A6802408A602168DFF81403A3
:109240004A6802404A60226840F29F31DFF8080312
:10925000116021680022CB680340CB60206841691F
:10926000C908C90041612068816A82622068016A78
:1092700001F0F02101622068416A01F0F0214162B1
:109280002068C16A01F0F021C1622068416C490880
:1092900049004164DFF8A802016821F47C01016003
:1092A000204600F07DFB0020E8600021A960686096
:1092B0002970304670BD706840F020007060B06862
:1092C00040F00100B0607047606E40F001006066E1
:1092D00070472DE9F8470023009300F15C042578DE
:1092E0000A460021012D08BF022000F0C88001239A
:1092F0002370D0F800C0DCF808305B0700F1B780BD
:10930000D2F804E00369DFF85452DFF85462DFF862
:109310003072DFF85082BEF1020F00F08480B3F1AA
:10932000004F18BF434509D11368DCF828E0C3F3A8
:10933000110343EA0E03CCF8283033E013685FEAE8
:1093400083380EBFC3F3846993FAA3F3B3FA83F9A6
:10935000D4F80CA00EF01F0E4FF00F0808FA0EF311
:109360002AEA030309FA0EFE4EEA0303E360536898
:10937000D0F824E04FEA930909F10109CE4511D351
:10938000D2F800E0DCF8289003F01F0308FA03F895
:10939000CEF3836E29EA08080EFA03F343EA0808BD
:1093A000CCF82880D0F800E09368D2F800C0DEF84E
:1093B0001480DFF8B40103EA0C2328EA0C280340E8
:1093C00043EA0803CEF814301068002854D53A68F0
:1093D000B04202F440021BD110024DD43B68DFF8CA
:1093E0008C0123F440031A4342F400023A600268FD
:1093F000DFF87C310C20B2FBF3F35B1C434300939A
:10940000009800281EBF0098401E0090F8D133E05D
:10941000A84231D150022FD43B6823F440031A43B1
:1094200042F4800221E0B3F1004F18BF434508D158
:109430001068DCF82830C0F3110023EA0000CCF8F3
:1094400028001068002817D53A68B04202F440029C
:1094500003D1386822F4000204E0A8420CD1386835
:1094600022F4800220F4400002433A6004E0606885
:10947000012140F020006060002020700846BDE817
:10948000F28738B504462168886840071DD588688A
:10949000800705D48A680E48024042F010028A60B4
:1094A00000F0E4FB05462068816848070DD500F010
:1094B000DDFB401B0328F6D3206881684807F2D5FE
:1094C000216E41F01001216656E0002032BD0000FF
:1094D000E8FFFF7F38B50446216888688A68D207AC
:1094E00029D5800727D48A6802F00502012A1DD1F8
:1094F0008A682048024042F002028A602068032104
:10950000016000F0B3FB054621688868C10712D5E9
:1095100000F0ACFB401B0328F6D320688168C80725
:10952000F2D5216E41F01001216603E0206E40F07B
:109530001000206620E0002032BD000002FCFFDFAA
:10954000081302460D82DEFF04FFFF03F3FF3F8393
:10955000E8FFFF6F60FCFFFF00821E8301000080B8
:10956000002000B41000008000FFFF03A451002081
:10957000400D0300E8FFFF7FFFF7A6FE012032BD8C
:1095800062B38B0708D0521E11F8013B00F8013B73
:1095900000F024808B07F6D1830740F0208000BFC5
:1095A000103A07D330B4B1E83810103AA0E83810B8
:1095B000F9D230BC530724BFB1E80810A0E8081066
:1095C00044BF51F8043B40F8043BD20724BF31F8B4
:1095D000022B20F8022B44BF0B7803707047121F38
:1095E00017D35B0009D151F8043B20F8023B1B0C58
:1095F000121F20F8023BF6D20BE051F8043B00F8B2
:10960000013B1B0A20F8023B1B0C121F00F8013B18
:10961000F3D238BF121D521E24BF11F8013B00F8CF
:10962000013BF8D8704700000C002700002200F032
:1096300023BB60000600F000F000600080B500F081
:1096400039FB00F051FB00F014F800F063F800F073
:1096500031F900F073F800F0A2F800F0B8F800F06B
:10966000A7F800F088F8002000F04DFB00F0EDFBBB
:10967000FCE780B598B0402108A8FFF7D7FF20216C
:109680006846FFF7D3FF022000F08CFC002000F0BA
:109690005FFC08B100F046F900F0B6FC954802689E
:1096A000012161F3C4024FF4803102604FF4801253
:1096B00009910A9281214FF4807207200B910C923C
:1096C0000890102100220D91109208A800F0C0FC13
:1096D00008B100F027F93F210091002102220291F8
:1096E0000192402100220491039205920692079272
:1096F0000121684600F001FF08B100F013F90220D3
:1097000001F0C2F80E2001F0F5F808B100F00AF9F6
:1097100019B000BD80B592B048216846FFF786FFBA
:109720004FF480204FF4004211900092684601F0FF
:109730002BF908B100F0F6F813B000BD80B56E4803
:109740000168002241F0010101600068062100F07B
:109750000100009000981D2001F037F81D2001F055
:109760005BF8002205211E2001F02FF81E20BDE825
:10977000024001F051B880B56048016841F4807141
:109780000160002001F048FA08B100F0CBF801F0C8
:109790004FFA00B100E001BDBDE80140C2E080B574
:1097A00057485849016001F053FA00B1F4E701BD90
:1097B00080B55548554920220160426001F06EFA9B
:1097C00008B100F0AFF8BDE8014001F0D9BA30B5FA
:1097D00093B01C216846FFF729FF302107A8FFF747
:1097E00025FF4B4C4B4820604FF080401F2100224A
:1097F000E0614FF48075A16022616261A261226222
:109800006562204601F0C2FB08B100F08BF8002130
:1098100000910391049105916946204601F09FFD56
:1098200008B100F07FF8204601F083FD08B100F098
:1098300079F800204FF07C510E9008900C900D911B
:109840001295012207A9204601F0F3FB08B100F0B0
:1098500069F813B030BD10B52F4C304820600C2093
:1098600060614FF400404FF4E1310022E06161603B
:10987000A260E2602261A26122626262A26220466C
:1098800001F08EFD08B100F04DF80021204602F0F5
:10989000CAFE08B100F046F80021204602F0CEFED4
:1098A00008B172B6FEE7204602F09CFE08B172B61F
:1098B000FEE710BD82B01A48016841F00201016064
:1098C000026802F0020200920099026842F001026E
:1098D0000260036803F0010300930099026842F0FC
:1098E00004020260006800F004000090009802B0DA
:1098F00002F0F8BEF00C0246880C0246040802464C
:10990000D0B300200060024040B3002000080C42A9
:10991000D4B00020007800466CA700200038014039
:109920008C0C024672B6FEE780B5C0480168002282
:1099300041F0040101600068012100F00400009082
:109940000098092000F041FF092000F065FF002287
:109950000521422000F039FF4220BDE8024000F01E
:109960005BBF10B592B000F06DF82268B0498A4232
:1099700014D14FF40053002100930F91684601F079
:1099800003F808B1FFF7CEFFA848016841F02001B5
:109990000160006800F020000090009812B010BD37
:1099A0000068A349884204D1A048026822F020023E
:1099B0000260704781B000689E49884209D19E4884
:1099C000026842F480520260006800F48050009007
:1099D000009801B0704700689649884204D19648C3
:1099E000026822F480520260704781B09248016898
:1099F00041F400310160006800F4003000900098EC
:109A000001B0704710B592B000F01CF822688B4985
:109A10008A4215D14FF480734FF40051009309919D
:109A2000684600F0B1FF08B1FFF77CFF8448016889
:109A300041F480210160006800F4802000900098CB
:109A400012B010BD044648216846FFF7EFBD18B5B7
:109A500093B00446482101A8FFF7E8FD2268794940
:109A60008A421DD14FF480434FF4807101931191CC
:109A700001A800F089FF08B1FFF754FF72480168A0
:109A8000002241F4001101600068042100F400107C
:109A900000900098022000F098FE022000F0BCFE2A
:109AA00014B010BD38B598B0044614216846FFF7CD
:109AB000BDFD482106A8FFF7B9FD2068634988422B
:109AC00040F08080012202210692079106A800F052
:109AD0005BFF08B1FFF726FF594881695C4D41F4EF
:109AE00080418161816901F4804105910599026895
:109AF00042F002020260036803F002030593059935
:109B000002684FF4805142F00102026000680222B4
:109B100000F0010005900598009100210291039149
:109B200007210491019269464A4802F0E1FD0022B2
:109B30004FF480700221029203920090019107225B
:109B400004926946444802F0D3FD444828604FF42B
:109B50000020686101200B2100226862A862696010
:109B6000AA60EA602A6100F034F808B1FFF7DAFE73
:109B7000C4F8805000F028F808B1FFF7D3FE384D44
:109B8000384828604FF480600C21E860696001204B
:109B9000002208216862A862AA6029616A6100F057
:109BA00018F808B1FFF7BEFEE56700F00DF808B140
:109BB000FFF7B8FE002207212E2000F006FE2E201F
:109BC00000F02AFE19B030BDEC651021284603F0E4
:109BD0000DB9AA61EA612A62EA622A636A632846C9
:109BE00002F0B4BE10B504462068184988421AD164
:109BF0001D4802684FF4805122F4804202601548EB
:109C000002F02BFE4FF48071134802F026FED4F8C8
:109C1000800002F047FFE06F02F044FF2E20BDE815
:109C2000104000F004BE10BD00000000940C02467D
:109C30000010024600300240880C024600080C4228
:109C40008C0C024600780046A80C02460038014001
:109C5000D0A900200004024200000242D0000240CD
:109C600048AA002050000240A40C02460148406867
:109C7000704700BF4851002000B500BF1300964652
:109C80009446103928BFA0E80C50FAD85FEA417C0E
:109C900028BF0CC048BF40F8042BC90728BF20F8D4
:109CA000022B48BF00F8012B00BD30000600A000C9
:109CB000A000300080B50B48016841F4807101605C
:109CC000032000F075FD03F0BDF8042000F0DCFD7A
:109CD0000E2000F00FFE08B1012002BDFFF724FEA8
:109CE000002002BD0020024080B50021009169469D
:109CF000002003F01BF9002812BF0C200098807B85
:109D000000F069FF01BD7CB5002002F0E9FC7A4853
:109D100001687A4C41F40001016003F01FF97848B2
:109D200000F078F9D4E9000103F05CFA03F080FA5E
:109D300003F0E8FA03F0A6FB03F05AFE04F1080072
:109D400003F082FE08B1FFF7EDFD6E4A00212020EE
:109D500004F0B4F801F0BAF86B4A0021012004F0D5
:109D6000ADF86A4A0021802004F0A8F80121012002
:109D700004F008F90021022004F004F90021002079
:109D800004F000F9002004F05FF9012004F05CF910
:109D9000022004F059F9012004F091F95C4C0020F4
:109DA00001210222207084F8201084F8402004F061
:109DB0009BF90121012004F097F90121022004F010
:109DC00093F9544A00214FF4007004F077F8524A96
:109DD00000214FF4806004F071F8504A00214FF4E4
:109DE000006004F06BF800250FF2790604EB4510D3
:109DF0003346002200900021001D03F0B5F86D1CD1
:109E0000022DF3D9464A0021402004F057F8454876
:109E100001884FF6FF73994201D0080001D14248F2
:109E200003E0C908414800EB413004F009FA08B1E9
:109E3000FFF778FD05F00AF80121022004F0A2F8EE
:109E4000002002F04EFC002076BD4FF0FF3003F002
:109E5000C1BF890005F0CABE800005F06BBE05F0E9
:109E6000AEBE000010B50446207804F0B2F92077A9
:109E700094F8003031A202215B1C002003F0ABF902
:109E8000207818B1022809D004D310BD00214FF466
:109E9000007006E000214FF4806002E000214FF4E2
:109EA0000060BDE8104004F017B870477047704775
:109EB0000021402004F010B80021012004F00CB86B
:109EC0001B4901601B4A1C4B4260836070470021A4
:109ED000202004F001B80021802003F0FDBF70476E
:109EE00070470B4901EB401000224FF4FA710277E2
:109EF000001D03F08EB80000F40C0246084F00204D
:109F00004000003093DD00083FAF0008FB08010867
:109F100024AB0020EBF9000803FA000845FA00081A
:109F20005D380108A007F90B00C00F0800C0FF074B
:109F3000539E0008599E00085F9E00084275747485
:109F40006F6E20256420707265737365640A00006B
:109F500010B5DFF8A420116B01F4803181421DD0CF
:109F60001168DFF8983021F48031084310601C68D4
:109F70003220DFF88C104443B4FBF1F1491C084651
:109F800001E068B1401E13681C04FAD540B101E03D
:109F900031B1491E106B0304FAD509B1002010BD80
:109FA000032010BD10B5DFF8542013683221DFF80C
:109FB00050404B43DFF84C20B3FBF4F1491C002820
:109FC00010680AD120F002001060506B83070DD595
:109FD000002918BF491EF8D10BE040F002001060C4
:109FE00001E031B1491E506B8307FAD509B1002059
:109FF00010BD032010BD00000C080246A451002033
:10A0000040420F00080802460F48016841F0010174
:10A010000160704730B50D4B596800F0FF02032511
:10A02000914341EA1021596092FAA2F19C68B1FA79
:10A0300081F149008D40AC4344EA10449C601868AB
:10A0400002431A6030BD0000280802461408024688
:10A050002DE9F84F040044D0DFF80477D7F81C90BE
:10A06000D7F828A0207809F00C090AF00305C107E9
:10A070002AD5B9F1080F04D0B9F10C0F08BF032D90
:10A0800062D1606800282CD0B9F1080F1CD1396862
:10A09000A068012221F48811014341F48031396024
:10A0A0003868DFF8DC16DFF8D436000D00F0010068
:10A0B0008240B1FBF2F1DFF8C0261160186800F0B1
:10A0C00019FC002840F0E9812078810712D5B9F108
:10A0D000000F04D0B9F10C0F08BF022D57D1206931
:10A0E000002800F0DA813869616920F4F81040EA4C
:10A0F000014038612078DFF88C86DFF88C56010744
:10A1000040F1C08028684FF0000A41070AD428684F
:10A110004FF0010A40F004002860296801F00401B2
:10A1200000910098D8F80010C80751D400F0DDF96C
:10A130000646D8F80000C1074AD4FFF797FD801BF8
:10A140000328F6D303207FE1606888B13A68A168EC
:10A1500022F488121043084300F0C4F90646386818
:10A160008103B1D4FFF782FD801B6528F7D3E9E7AF
:10A17000386820F4881000F0B5F906463868810385
:10A18000A2D5FFF773FD801B6528F7D3DAE72069B6
:10A1900078B1396841F480713960FFF767FD054691
:10A1A000386841059FD4FFF761FD401B0328F7D3B2
:10A1B000C8E7386820F4807000F094F905463868E4
:10A1C000410597D5FFF752FD401B0328F7D3B9E7A8
:10A1D000EE6DA069002843D040011AD5E16906F070
:10A1E0008050814211D031010FD526F08066EE6596
:10A1F000FFF73CFD8346E86D010106D5FFF736FD0C
:10A20000A0EB0B001528F6D39CE7E16926F08056F9
:10A210000E43A0690643EE65FFF728FD0090B346A4
:10A22000A669E86D10EA460F06D1FFF71FFD0099F9
:10A23000401A1528F4D385E786F010562BEA060B52
:10A24000C5F85CB0FFF712FD8346E86D10EA460FD3
:10A2500016D0FFF70BFDA0EB0B001528F5D371E727
:10A2600026F01056EE65FFF701FD0646E86D10F08A
:10A27000904F05D0FFF7FAFC801B1528F6D361E755
:10A2800000F028F9217848076CD529684FF0000ABA
:10A2900048070AD429684FF0010A41F004012960F7
:10A2A000286800F0040000900098D8F80010C80753
:10A2B0000CD400F01AF90646D8F80000C10705D4FE
:10A2C000FFF7D4FC801B0328F6D33BE7E06841F29C
:10A2D000893828B3E96D21F080010843E865FFF76C
:10A2E000C5FC0646E86D810705D4FFF7BFFC801B5F
:10A2F0004045F7D326E7207B010608D5E86D010528
:10A300002ED4FFF7B3FC801B4045F7D31AE7E86D66
:10A31000010525D5FFF7AAFC801B4045F7D311E7BF
:10A32000E86D20F08100E865E86D20F00400E86544
:10A33000FFF79CFC0646E86D810705D5FFF796FC04
:10A34000801B4045F7D3FDE6E86D010608D5E86DB2
:10A35000010505D5FFF78AFC801B4045F7D3F1E6E0
:10A3600000F0B8F8206A00286DD0B9F10C0F6DD05C
:10A370000228386820F08070386053D1FFF776FCEF
:10A380000546D7F800A0FFF771FC401B0328E6D272
:10A390005FEA8A10F5D4626A032A07D14FEA1A519C
:10A3A000DFF8DC0301F00101C84001E0DFF8C4037D
:10A3B000A36ADFF8D813B0FBF3F088422CBF0C215E
:10A3C0000021D7F82890DFF8C8035B1E00EA0900D7
:10A3D0000243114341EA032141F48021B962E06A5A
:10A3E000216B401E491E40EA4120616B491E40EA34
:10A3F0000140A16B491E40EA01607863E06B10B137
:10A4000000F062F8B862386840F0807000F06AF8D6
:10A4100004463868810116D4FFF728FC001B032886
:10A42000F7D38FE6FFF722FC04463868810105D593
:10A43000FFF71CFC001B0328F7D383E6B86ADFF89C
:10A4400054130840B8620020BDE8F28F012824D0E0
:10A45000B86A796B636A00F003029A4201BFC0F3E5
:10A460000220A26A521E904217D1E26AC1F308008C
:10A47000521E904201BFC1F34620226B521E9042F1
:10A480000BD1626BC1F30640521E904201BFC1F373
:10A490000660A16B491E884201D00120D4E7B86B49
:10A4A000E16BC0F3CC008142CDD0B86A20F010003F
:10A4B000B862FFF7DBFB0546FFF7D8FB401BFBD07C
:10A4C000E06B00F001F8BDE7C000B863B86A40F087
:10A4D00010007047BAF1000F03D0286820F0040084
:10A4E000286070473860FFF7C1BBD8F8001041F012
:10A4F0000101C8F80010FFF7B9BB2DE9F0410400D5
:10A50000884637D0DFF89062306800F00F00404591
:10A5100009D23168090948EA01113160306800F058
:10A520000F00404526D12178880609D5DFF8402262
:10A530001368A169E06923F017030B430343136019
:10A540002178DFF81C52C80742D5286861680329C2
:10A550000CD180016BD5E96901F00C010C290CD0FC
:10A56000A96A012060F31551A96206E0022902D10F
:10A57000800302D45BE0410559D5EA69606892081E
:10A5800040EA8202EA61FFF771FB07466068E96909
:10A5900001F00C01B1EB800F08D0FFF767FBC01B87
:10A5A00041F289318842F1D3032052E003280FD1D0
:10A5B000A86A20F48010A862FFF758FB0746A86A33
:10A5C000410205D4FFF752FBC01B0B28F7D3EBE782
:10A5D000296A22680020930704D5A068C90840EAC8
:10A5E000C1010120530704D5E06821F07001014347
:10A5F0000120120705D5206921F4E06141EA00112C
:10A6000000E000B129622078C10644BF6069686239
:10A61000316801F00F0188450BD23068000948EA23
:10A6200000103060316801F00F01414501D0012078
:10A630000FE000F010F82A6A58494F4B02F0070269
:10A64000895CC84018604D480068BDE8F04100F0E2
:10A6500051B9BDE8F0814249C86910F00C0001D140
:10A6600044487047082818BF00F036B809684448C5
:10A67000090D01F00101C840704780B5FFF7EBFFFD
:10A6800047490968454A3C4B01F00701515CC84005
:10A69000186002BD80B5FFF7F0FF414A0CE080B5BD
:10A6A000FFF7EBFF3E4A13683E49C3F3022207E07F
:10A6B00080B5FFF7E2FF3C4A13683A49C3F3021240
:10A6C000895CC84002BD10EE100A491CB0FBF1F0D5
:10A6D00010BD3648046807E010B5FFF7FAFFBCEE7E
:10A6E000C00AC4F30661EEE71D48416BC1F30801DF
:10A6F000491C00EE101A816AB8EE400AC1F302222A
:10A70000521C00EE902AF8EE600ACA0643BF826B24
:10A71000C2F3CC0201EE102A9FED121A01F00301E0
:10A72000B8EE411A022902D0032903D00DE0DFED73
:10A730000E1A0CE000681249000D00F00100C14043
:10A7400001EE901AF8EE611A01E0DFED061AC1EE93
:10A75000A00ADFED061A01EE210A20EE800A7047FA
:10A76000000C0246000000000024744B0000003979
:10A77000000E02460024F400A45100205051002095
:10A780000048E80128080246940C024601127A00AB
:10A79000E0F8FFFFFCFFF8FF0020024024CF000894
:10A7A000200C0246D8860008240C0246340C0246CF
:10A7B000474B19684FF6FF020002114000F4E060B9
:10A7C0000843444908431860704770B5404B1C6803
:10A7D000C4F302230124C3F10705052D2EBF0F2565
:10A7E00004FA05F56D1E1E1D072E34BF0023DB1E67
:10A7F0002940994004FA03F35B1E1A4011430901F2
:10A80000020002D43448815470BD344B02F00F0270
:10A810001A4402F8041C70BD010007D4012200F0A4
:10A820001F018A402E4B400943F820207047010049
:10A830000BD4012200F01F018A402A4B400943F843
:10A840002020BFF34F8FBFF36F8F7047401EB0F1D2
:10A85000807F07D22449486000228A600B6843F059
:10A8600003030B60B0F1807F8041C043C00F70478D
:10A87000010007D4012200F01F018A401B4B400950
:10A8800043F82020704700001949174A04281ED8B1
:10A89000DFE800F00811141D0300106840F0040008
:10A8A00010607047136823F004031360086820F4F5
:10A8B0004000086070471368012001E0136802201F
:10A8C00023F0040313600A6860F397520A6070472C
:10A8D0000CED00E00000FA0500E400E018ED00E0F7
:10A8E00000E100E080E100E010E000E000E200E0D4
:10A8F000E00C0246F8B504461F4D287800210028D8
:10A900002ED01E4A12681E4B1E68770702D54FF4E0
:10A910007A710DE01B4B1B6813F4400306D0B3F5AE
:10A92000800F08D0B3F5000F0ED015E04FF4FA51A8
:10A93000B1FBF0F00EE04FF47A72B2FBF0F24FF49C
:10A94000FA43B3FBF2F107E04FF47A71B1FBF0F098
:10A950004FF40042B2FBF0F10846FFF777FF08B171
:10A960000120F2BD002221464FF0FF30FFF72DFFFE
:10A97000AC600020F2BD00BF48510020A45100206F
:10A9800010E000E0E00C02462DE9FC47074638786D
:10A99000DFF86C42C10705D522687868920840EA62
:10A9A000820222603978880705D52168B86821F0CD
:10A9B0000C01014321603978480705D52168F86802
:10A9C00021F44061014321603978080705D52168E9
:10A9D000386921F44021014321603978C80605D542
:10A9E0002168786921F44011014321603978880693
:10A9F00005D52168B86921F4400101432160397807
:10AA0000480605D52168F86921F00041014321601D
:10AA10003978DFF8F051080611D56168386A21F0FD
:10AA2000E00101436160386A18B9286840F4803059
:10AA300004E0202803D1286840F4003028603968F9
:10AA4000C8050DD56168786A21F440510143616001
:10AA5000796AB1F5405F03D1286840F4003028607E
:10AA60003968880212D56168B86A21F080410143D3
:10AA70006160B86A18B9286840F4803005E0B0F128
:10AA8000804F03D1286840F4003028603968880579
:10AA900005D5A168F86A890840EA8101A160396892
:10AAA000480505D5A168386B21F018010143A16064
:10AAB0003968080505D5A168786B21F0C00101430C
:10AAC000A1603968C80405D5A168B86B21F440615C
:10AAD0000143A160396888040DD5A168F86B21F4A1
:10AAE000E0410143A160F96BB1F5005F03D1286833
:10AAF00040F4803028603968480458D5D4F8108074
:10AB0000386C4FF0000908F4407880454FD0E96E6A
:10AB100048070AD4E96E4FF0010941F00401E966E3
:10AB2000E86E00F0040000900098DFF8DC60306808
:10AB300040F001003060FFF799F882463068C107A5
:10AB400007D4FFF793F8A0EB0A000228F6D90320F8
:10AB50003FE02669B8F1000F26F4407609D0A069DD
:10AB6000216941F480312161216921F48031216121
:10AB7000A061396CDFF894003143216106400FD0A9
:10AB8000FFF774F88046206910EA460F08D1FFF7F6
:10AB90006DF8A0EB080041F289318842F3D3D6E783
:10ABA000B9F1000F03D0E86E20F00400E8663868C1
:10ABB00001040DD52269786C22F4402202432261FF
:10ABC0002169786C01F44021814218BF012000D135
:10ABD0000020BDE8F6870E490A6822F47C1242EA9A
:10ABE00000420A6070470B48016841F002010160B1
:10ABF00070470848016821F00201016070470000B9
:10AC0000E00C0246280C02462808024601000024F7
:10AC1000100E0246080E024610B500F010F801D5DD
:10AC2000012010BD136823F004031943116010BD07
:10AC30000648016841F00101016000207047034AA5
:10AC4000136801460020DC07704700000004034041
:10AC500010B5040001D1012010BD02202071204652
:10AC6000FEF7C3FE0020A0600121217110BD02216A
:10AC70008160012070470B60012101710020704745
:10AC80000279012A04D10223037102681160F3E7FB
:10AC9000EDE70068006800F4E020704738B5040074
:10ACA00001D1012032BD607A20B9002121722046F5
:10ACB000FEF7A8FE022060722068016821F00401FE
:10ACC000016022682449136860680B4023490343EC
:10ACD00043F0804343F40053136022684AF6C720D0
:10ACE00011602368186100F03FF8054600F038F85D
:10ACF0000CD5FEF7BBFF401B0B28F7D300F030F854
:10AD0000F4D5012060720221E16032BD016841F09A
:10AD10000401016020684168480602D5042161727F
:10AD2000BFE7FEF7A3FF054620684168C8070DD4BA
:10AD3000FEF79CFF401B0B28F6D320684168C8072C
:10AD4000F2D4042161720220E060AAE7012060725F
:10AD50000021E160002032BDDF1FFFBF002DF000A9
:10AD6000206801684A0070472068016821F080412E
:10AD70000160FEF77BBFD0048901D004780189010E
:10AD800080B50420FEF726F97D48016821F0040112
:10AD90000160012000F020F80420BDE80240FEF729
:10ADA0001AB938B5044604F065FFEFF3108172B6A6
:10ADB000744A92F8820048B9734B1D6845F48025A7
:10ADC0001D601B6803F480230093009B044382F8FA
:10ADD000824081F3108831BD82B0EFF3108272B6E9
:10ADE000684991F8823023EA000081F8820082F3FA
:10ADF000108891F8820040B9B222009202E00098D7
:10AE0000401E009000980028F9D1EFF3108272B62E
:10AE100091F8820020B95C48016821F4802101602A
:10AE200082F3108802B004F035BF2DE9F0410646E8
:10AE300006F1800778780025514C78B90320FEF799
:10AE4000C9F80120FFF7ADFF206840F00400206042
:10AE50000320FEF7C0F80120787034E060688007B6
:10AE600005D56FF02001616040F201152BE06068AC
:10AE7000400609D56FF0400161600C20A168401EBA
